{
  "_format": "hh-sol-artifact-1",
  "contractName": "Blockify",
  "sourceName": "contracts/Blockify.sol",
  "abi": [
    {
      "inputs": [],
      "stateMutability": "nonpayable",
      "type": "constructor"
    },
    {
      "anonymous": false,
      "inputs": [
        {
          "indexed": true,
          "internalType": "address",
          "name": "owner",
          "type": "address"
        },
        {
          "indexed": true,
          "internalType": "address",
          "name": "approved",
          "type": "address"
        },
        {
          "indexed": true,
          "internalType": "uint256",
          "name": "tokenId",
          "type": "uint256"
        }
      ],
      "name": "Approval",
      "type": "event"
    },
    {
      "anonymous": false,
      "inputs": [
        {
          "indexed": true,
          "internalType": "address",
          "name": "owner",
          "type": "address"
        },
        {
          "indexed": true,
          "internalType": "address",
          "name": "operator",
          "type": "address"
        },
        {
          "indexed": false,
          "internalType": "bool",
          "name": "approved",
          "type": "bool"
        }
      ],
      "name": "ApprovalForAll",
      "type": "event"
    },
    {
      "anonymous": false,
      "inputs": [
        {
          "indexed": false,
          "internalType": "address",
          "name": "follower",
          "type": "address"
        }
      ],
      "name": "BlogFollowed",
      "type": "event"
    },
    {
      "anonymous": false,
      "inputs": [
        {
          "indexed": false,
          "internalType": "address",
          "name": "sender",
          "type": "address"
        },
        {
          "indexed": false,
          "internalType": "uint256",
          "name": "blogId",
          "type": "uint256"
        },
        {
          "components": [
            {
              "internalType": "uint256",
              "name": "blogId",
              "type": "uint256"
            },
            {
              "internalType": "string",
              "name": "blogDid",
              "type": "string"
            },
            {
              "internalType": "string",
              "name": "blogname",
              "type": "string"
            },
            {
              "internalType": "string",
              "name": "coverPicture",
              "type": "string"
            },
            {
              "internalType": "uint256",
              "name": "followers",
              "type": "uint256"
            }
          ],
          "indexed": false,
          "internalType": "struct DataTypes.Blog",
          "name": "blogData",
          "type": "tuple"
        }
      ],
      "name": "BlogNFTMinted",
      "type": "event"
    },
    {
      "anonymous": false,
      "inputs": [
        {
          "components": [
            {
              "internalType": "string",
              "name": "idOfPost",
              "type": "string"
            },
            {
              "internalType": "string",
              "name": "content",
              "type": "string"
            },
            {
              "internalType": "address",
              "name": "authorId",
              "type": "address"
            },
            {
              "internalType": "uint256",
              "name": "date",
              "type": "uint256"
            }
          ],
          "indexed": false,
          "internalType": "struct DataTypes.Comment",
          "name": "commentAdded",
          "type": "tuple"
        }
      ],
      "name": "CommentAdded",
      "type": "event"
    },
    {
      "anonymous": false,
      "inputs": [
        {
          "components": [
            {
              "internalType": "string",
              "name": "id",
              "type": "string"
            },
            {
              "internalType": "string",
              "name": "title",
              "type": "string"
            },
            {
              "internalType": "string",
              "name": "content",
              "type": "string"
            },
            {
              "internalType": "string",
              "name": "picture",
              "type": "string"
            },
            {
              "internalType": "string",
              "name": "video",
              "type": "string"
            },
            {
              "internalType": "string",
              "name": "username",
              "type": "string"
            },
            {
              "internalType": "uint256",
              "name": "authorId",
              "type": "uint256"
            },
            {
              "internalType": "uint256",
              "name": "date",
              "type": "uint256"
            }
          ],
          "indexed": false,
          "internalType": "struct DataTypes.Post",
          "name": "postAdded",
          "type": "tuple"
        }
      ],
      "name": "PostAdded",
      "type": "event"
    },
    {
      "anonymous": false,
      "inputs": [
        {
          "indexed": true,
          "internalType": "address",
          "name": "from",
          "type": "address"
        },
        {
          "indexed": true,
          "internalType": "address",
          "name": "to",
          "type": "address"
        },
        {
          "indexed": true,
          "internalType": "uint256",
          "name": "tokenId",
          "type": "uint256"
        }
      ],
      "name": "Transfer",
      "type": "event"
    },
    {
      "inputs": [
        {
          "internalType": "string",
          "name": "_commentToAdd",
          "type": "string"
        },
        {
          "internalType": "string",
          "name": "_postId",
          "type": "string"
        }
      ],
      "name": "addComment",
      "outputs": [],
      "stateMutability": "nonpayable",
      "type": "function"
    },
    {
      "inputs": [
        {
          "internalType": "address",
          "name": "to",
          "type": "address"
        },
        {
          "internalType": "uint256",
          "name": "tokenId",
          "type": "uint256"
        }
      ],
      "name": "approve",
      "outputs": [],
      "stateMutability": "nonpayable",
      "type": "function"
    },
    {
      "inputs": [
        {
          "internalType": "address",
          "name": "owner",
          "type": "address"
        }
      ],
      "name": "balanceOf",
      "outputs": [
        {
          "internalType": "uint256",
          "name": "",
          "type": "uint256"
        }
      ],
      "stateMutability": "view",
      "type": "function"
    },
    {
      "inputs": [
        {
          "internalType": "string",
          "name": "",
          "type": "string"
        },
        {
          "internalType": "uint256",
          "name": "",
          "type": "uint256"
        }
      ],
      "name": "blogComments",
      "outputs": [
        {
          "internalType": "string",
          "name": "idOfPost",
          "type": "string"
        },
        {
          "internalType": "string",
          "name": "content",
          "type": "string"
        },
        {
          "internalType": "address",
          "name": "authorId",
          "type": "address"
        },
        {
          "internalType": "uint256",
          "name": "date",
          "type": "uint256"
        }
      ],
      "stateMutability": "view",
      "type": "function"
    },
    {
      "inputs": [
        {
          "internalType": "uint256",
          "name": "",
          "type": "uint256"
        },
        {
          "internalType": "uint256",
          "name": "",
          "type": "uint256"
        }
      ],
      "name": "blogFollowers",
      "outputs": [
        {
          "internalType": "address",
          "name": "",
          "type": "address"
        }
      ],
      "stateMutability": "view",
      "type": "function"
    },
    {
      "inputs": [
        {
          "internalType": "uint256",
          "name": "",
          "type": "uint256"
        }
      ],
      "name": "blogs",
      "outputs": [
        {
          "internalType": "uint256",
          "name": "blogId",
          "type": "uint256"
        },
        {
          "internalType": "string",
          "name": "blogDid",
          "type": "string"
        },
        {
          "internalType": "string",
          "name": "blogname",
          "type": "string"
        },
        {
          "internalType": "string",
          "name": "coverPicture",
          "type": "string"
        },
        {
          "internalType": "uint256",
          "name": "followers",
          "type": "uint256"
        }
      ],
      "stateMutability": "view",
      "type": "function"
    },
    {
      "inputs": [
        {
          "internalType": "uint256",
          "name": "",
          "type": "uint256"
        }
      ],
      "name": "blogsOwners",
      "outputs": [
        {
          "internalType": "address",
          "name": "",
          "type": "address"
        }
      ],
      "stateMutability": "view",
      "type": "function"
    },
    {
      "inputs": [
        {
          "internalType": "uint256",
          "name": "_blogToCheckId",
          "type": "uint256"
        }
      ],
      "name": "checkProfileOwner",
      "outputs": [
        {
          "components": [
            {
              "internalType": "uint256",
              "name": "blogId",
              "type": "uint256"
            },
            {
              "internalType": "string",
              "name": "blogDid",
              "type": "string"
            },
            {
              "internalType": "string",
              "name": "blogname",
              "type": "string"
            },
            {
              "internalType": "string",
              "name": "coverPicture",
              "type": "string"
            },
            {
              "internalType": "uint256",
              "name": "followers",
              "type": "uint256"
            }
          ],
          "internalType": "struct DataTypes.Blog",
          "name": "",
          "type": "tuple"
        }
      ],
      "stateMutability": "view",
      "type": "function"
    },
    {
      "inputs": [
        {
          "internalType": "uint256",
          "name": "",
          "type": "uint256"
        }
      ],
      "name": "doesBlogExist",
      "outputs": [
        {
          "internalType": "bool",
          "name": "",
          "type": "bool"
        }
      ],
      "stateMutability": "view",
      "type": "function"
    },
    {
      "inputs": [
        {
          "internalType": "string",
          "name": "",
          "type": "string"
        }
      ],
      "name": "doesBlognameExist",
      "outputs": [
        {
          "internalType": "bool",
          "name": "",
          "type": "bool"
        }
      ],
      "stateMutability": "view",
      "type": "function"
    },
    {
      "inputs": [
        {
          "internalType": "uint256",
          "name": "_followedBlogId",
          "type": "uint256"
        }
      ],
      "name": "followBlog",
      "outputs": [],
      "stateMutability": "nonpayable",
      "type": "function"
    },
    {
      "inputs": [
        {
          "internalType": "uint256",
          "name": "tokenId",
          "type": "uint256"
        }
      ],
      "name": "getApproved",
      "outputs": [
        {
          "internalType": "address",
          "name": "",
          "type": "address"
        }
      ],
      "stateMutability": "view",
      "type": "function"
    },
    {
      "inputs": [
        {
          "internalType": "uint256",
          "name": "_blogFollowersId",
          "type": "uint256"
        }
      ],
      "name": "getBlogFollowers",
      "outputs": [
        {
          "internalType": "address[]",
          "name": "",
          "type": "address[]"
        }
      ],
      "stateMutability": "view",
      "type": "function"
    },
    {
      "inputs": [
        {
          "internalType": "string",
          "name": "_postId",
          "type": "string"
        }
      ],
      "name": "getComments",
      "outputs": [
        {
          "components": [
            {
              "internalType": "string",
              "name": "idOfPost",
              "type": "string"
            },
            {
              "internalType": "string",
              "name": "content",
              "type": "string"
            },
            {
              "internalType": "address",
              "name": "authorId",
              "type": "address"
            },
            {
              "internalType": "uint256",
              "name": "date",
              "type": "uint256"
            }
          ],
          "internalType": "struct DataTypes.Comment[]",
          "name": "",
          "type": "tuple[]"
        }
      ],
      "stateMutability": "view",
      "type": "function"
    },
    {
      "inputs": [
        {
          "internalType": "address",
          "name": "owner",
          "type": "address"
        },
        {
          "internalType": "address",
          "name": "operator",
          "type": "address"
        }
      ],
      "name": "isApprovedForAll",
      "outputs": [
        {
          "internalType": "bool",
          "name": "",
          "type": "bool"
        }
      ],
      "stateMutability": "view",
      "type": "function"
    },
    {
      "inputs": [
        {
          "internalType": "string",
          "name": "_blogname",
          "type": "string"
        },
        {
          "internalType": "string",
          "name": "_blogdid",
          "type": "string"
        },
        {
          "internalType": "string",
          "name": "_coverPicture",
          "type": "string"
        }
      ],
      "name": "mintBlogNFT",
      "outputs": [],
      "stateMutability": "nonpayable",
      "type": "function"
    },
    {
      "inputs": [],
      "name": "name",
      "outputs": [
        {
          "internalType": "string",
          "name": "",
          "type": "string"
        }
      ],
      "stateMutability": "view",
      "type": "function"
    },
    {
      "inputs": [
        {
          "internalType": "uint256",
          "name": "tokenId",
          "type": "uint256"
        }
      ],
      "name": "ownerOf",
      "outputs": [
        {
          "internalType": "address",
          "name": "",
          "type": "address"
        }
      ],
      "stateMutability": "view",
      "type": "function"
    },
    {
      "inputs": [
        {
          "internalType": "string",
          "name": "",
          "type": "string"
        },
        {
          "internalType": "uint256",
          "name": "",
          "type": "uint256"
        }
      ],
      "name": "postComments",
      "outputs": [
        {
          "internalType": "string",
          "name": "idOfPost",
          "type": "string"
        },
        {
          "internalType": "string",
          "name": "content",
          "type": "string"
        },
        {
          "internalType": "address",
          "name": "authorId",
          "type": "address"
        },
        {
          "internalType": "uint256",
          "name": "date",
          "type": "uint256"
        }
      ],
      "stateMutability": "view",
      "type": "function"
    },
    {
      "inputs": [
        {
          "internalType": "address",
          "name": "from",
          "type": "address"
        },
        {
          "internalType": "address",
          "name": "to",
          "type": "address"
        },
        {
          "internalType": "uint256",
          "name": "tokenId",
          "type": "uint256"
        }
      ],
      "name": "safeTransferFrom",
      "outputs": [],
      "stateMutability": "nonpayable",
      "type": "function"
    },
    {
      "inputs": [
        {
          "internalType": "address",
          "name": "from",
          "type": "address"
        },
        {
          "internalType": "address",
          "name": "to",
          "type": "address"
        },
        {
          "internalType": "uint256",
          "name": "tokenId",
          "type": "uint256"
        },
        {
          "internalType": "bytes",
          "name": "data",
          "type": "bytes"
        }
      ],
      "name": "safeTransferFrom",
      "outputs": [],
      "stateMutability": "nonpayable",
      "type": "function"
    },
    {
      "inputs": [
        {
          "internalType": "address",
          "name": "operator",
          "type": "address"
        },
        {
          "internalType": "bool",
          "name": "approved",
          "type": "bool"
        }
      ],
      "name": "setApprovalForAll",
      "outputs": [],
      "stateMutability": "nonpayable",
      "type": "function"
    },
    {
      "inputs": [
        {
          "internalType": "bytes4",
          "name": "interfaceId",
          "type": "bytes4"
        }
      ],
      "name": "supportsInterface",
      "outputs": [
        {
          "internalType": "bool",
          "name": "",
          "type": "bool"
        }
      ],
      "stateMutability": "view",
      "type": "function"
    },
    {
      "inputs": [],
      "name": "symbol",
      "outputs": [
        {
          "internalType": "string",
          "name": "",
          "type": "string"
        }
      ],
      "stateMutability": "view",
      "type": "function"
    },
    {
      "inputs": [
        {
          "internalType": "uint256",
          "name": "_tokenId",
          "type": "uint256"
        }
      ],
      "name": "tokenURI",
      "outputs": [
        {
          "internalType": "string",
          "name": "",
          "type": "string"
        }
      ],
      "stateMutability": "view",
      "type": "function"
    },
    {
      "inputs": [
        {
          "internalType": "address",
          "name": "from",
          "type": "address"
        },
        {
          "internalType": "address",
          "name": "to",
          "type": "address"
        },
        {
          "internalType": "uint256",
          "name": "tokenId",
          "type": "uint256"
        }
      ],
      "name": "transferFrom",
      "outputs": [],
      "stateMutability": "nonpayable",
      "type": "function"
    }
  ],
  "bytecode": "0x60806040523480156200001157600080fd5b506040518060400160405280600881526020017f426c6f636b6966790000000000000000000000000000000000000000000000008152506040518060400160405280600481526020017f4247465900000000000000000000000000000000000000000000000000000000815250816000908051906020019062000096929190620000b8565b508060019080519060200190620000af929190620000b8565b505050620001cd565b828054620000c69062000168565b90600052602060002090601f016020900481019282620000ea576000855562000136565b82601f106200010557805160ff191683800117855562000136565b8280016001018555821562000136579182015b828111156200013557825182559160200191906001019062000118565b5b50905062000145919062000149565b5090565b5b80821115620001645760008160009055506001016200014a565b5090565b600060028204905060018216806200018157607f821691505b602082108114156200019857620001976200019e565b5b50919050565b7f4e487b7100000000000000000000000000000000000000000000000000000000600052602260045260246000fd5b6147ee80620001dd6000396000f3fe608060405234801561001057600080fd5b506004361061018e5760003560e01c806395d89b41116100de578063c094155711610097578063df6ac8d011610071578063df6ac8d014610507578063e985e9c514610523578063fb3d946014610553578063ffde2b47146105865761018e565b8063c09415571461048b578063c87b56dd146104bb578063c945fef9146104eb5761018e565b806395d89b41146103b9578063a22cb465146103d7578063a90de303146103f3578063ae5ff90514610423578063b88d4fde1461043f578063ba8d55271461045b5761018e565b806323b872dd1161014b57806370a082311161012557806370a08231146102f557806370c63fcc14610325578063730351131461035557806380f052d8146103855761018e565b806323b872dd1461028d57806342842e0e146102a95780636352211e146102c55761018e565b806301ffc9a71461019357806306fdde03146101c3578063081812fc146101e1578063095ea7b314610211578063137e47f11461022d57806319fd821e1461025d575b600080fd5b6101ad60048036038101906101a89190613099565b6105b9565b6040516101ba9190613ab9565b60405180910390f35b6101cb61069b565b6040516101d89190613ad4565b60405180910390f35b6101fb60048036038101906101f69190613283565b61072d565b60405161020891906139d0565b60405180910390f35b61022b6004803603810190610226919061305d565b610773565b005b61024760048036038101906102429190613283565b61088b565b6040516102549190613d09565b60405180910390f35b61027760048036038101906102729190613283565b610b29565b60405161028491906139d0565b60405180910390f35b6102a760048036038101906102a29190612f57565b610b5c565b005b6102c360048036038101906102be9190612f57565b610bbc565b005b6102df60048036038101906102da9190613283565b610bdc565b6040516102ec91906139d0565b60405180910390f35b61030f600480360381019061030a9190612ef2565b610c8e565b60405161031c9190613d4d565b60405180910390f35b61033f600480360381019061033a91906130eb565b610d46565b60405161034c9190613a97565b60405180910390f35b61036f600480360381019061036a9190613283565b610f47565b60405161037c9190613ab9565b60405180910390f35b61039f600480360381019061039a9190613283565b610f67565b6040516103b0959493929190613d68565b60405180910390f35b6103c1611135565b6040516103ce9190613ad4565b60405180910390f35b6103f160048036038101906103ec9190613021565b6111c7565b005b61040d600480360381019061040891906130eb565b6111dd565b60405161041a9190613ab9565b60405180910390f35b61043d6004803603810190610438919061312c565b611213565b005b61045960048036038101906104549190612fa6565b61135f565b005b61047560048036038101906104709190613283565b6113c1565b6040516104829190613a75565b60405180910390f35b6104a560048036038101906104a091906132ac565b6114c4565b6040516104b291906139d0565b60405180910390f35b6104d560048036038101906104d09190613283565b611512565b6040516104e29190613ad4565b60405180910390f35b61050560048036038101906105009190613283565b61179b565b005b610521600480360381019061051c9190613198565b6118ab565b005b61053d60048036038101906105389190612f1b565b611ae0565b60405161054a9190613ab9565b60405180910390f35b61056d6004803603810190610568919061322f565b611b74565b60405161057d9493929190613af6565b60405180910390f35b6105a0600480360381019061059b919061322f565b611d07565b6040516105b09493929190613af6565b60405180910390f35b60007f80ac58cd000000000000000000000000000000000000000000000000000000007bffffffffffffffffffffffffffffffffffffffffffffffffffffffff1916827bffffffffffffffffffffffffffffffffffffffffffffffffffffffff1916148061068457507f5b5e139f000000000000000000000000000000000000000000000000000000007bffffffffffffffffffffffffffffffffffffffffffffffffffffffff1916827bffffffffffffffffffffffffffffffffffffffffffffffffffffffff1916145b80610694575061069382611e9a565b5b9050919050565b6060600080546106aa906140e8565b80601f01602080910402602001604051908101604052809291908181526020018280546106d6906140e8565b80156107235780601f106106f857610100808354040283529160200191610723565b820191906000526020600020905b81548152906001019060200180831161070657829003601f168201915b5050505050905090565b600061073882611f04565b6004600083815260200190815260200160002060009054906101000a900473ffffffffffffffffffffffffffffffffffffffff169050919050565b600061077e82610bdc565b90508073ffffffffffffffffffffffffffffffffffffffff168373ffffffffffffffffffffffffffffffffffffffff1614156107ef576040517f08c379a00000000000000000000000000000000000000000000000000000000081526004016107e690613c89565b60405180910390fd5b8073ffffffffffffffffffffffffffffffffffffffff1661080e611f4f565b73ffffffffffffffffffffffffffffffffffffffff16148061083d575061083c81610837611f4f565b611ae0565b5b61087c576040517f08c379a000000000000000000000000000000000000000000000000000000000815260040161087390613c29565b60405180910390fd5b6108868383611f57565b505050565b610893612ce7565b3373ffffffffffffffffffffffffffffffffffffffff166009600084815260200190815260200160002060009054906101000a900473ffffffffffffffffffffffffffffffffffffffff1673ffffffffffffffffffffffffffffffffffffffff161415610ae957600760008381526020019081526020016000206040518060a001604052908160008201548152602001600182018054610932906140e8565b80601f016020809104026020016040519081016040528092919081815260200182805461095e906140e8565b80156109ab5780601f10610980576101008083540402835291602001916109ab565b820191906000526020600020905b81548152906001019060200180831161098e57829003601f168201915b505050505081526020016002820180546109c4906140e8565b80601f01602080910402602001604051908101604052809291908181526020018280546109f0906140e8565b8015610a3d5780601f10610a1257610100808354040283529160200191610a3d565b820191906000526020600020905b815481529060010190602001808311610a2057829003601f168201915b50505050508152602001600382018054610a56906140e8565b80601f0160208091040260200160405190810160405280929190818152602001828054610a82906140e8565b8015610acf5780601f10610aa457610100808354040283529160200191610acf565b820191906000526020600020905b815481529060010190602001808311610ab257829003601f168201915b505050505081526020016004820154815250509050610b24565b6040517f08c379a0000000000000000000000000000000000000000000000000000000008152600401610b1b90613ca9565b60405180910390fd5b919050565b60096020528060005260406000206000915054906101000a900473ffffffffffffffffffffffffffffffffffffffff1681565b610b6d610b67611f4f565b82612010565b610bac576040517f08c379a0000000000000000000000000000000000000000000000000000000008152600401610ba390613ce9565b60405180910390fd5b610bb78383836120a5565b505050565b610bd78383836040518060200160405280600081525061135f565b505050565b6000806002600084815260200190815260200160002060009054906101000a900473ffffffffffffffffffffffffffffffffffffffff169050600073ffffffffffffffffffffffffffffffffffffffff168173ffffffffffffffffffffffffffffffffffffffff161415610c85576040517f08c379a0000000000000000000000000000000000000000000000000000000008152600401610c7c90613c69565b60405180910390fd5b80915050919050565b60008073ffffffffffffffffffffffffffffffffffffffff168273ffffffffffffffffffffffffffffffffffffffff161415610cff576040517f08c379a0000000000000000000000000000000000000000000000000000000008152600401610cf690613c09565b60405180910390fd5b600360008373ffffffffffffffffffffffffffffffffffffffff1673ffffffffffffffffffffffffffffffffffffffff168152602001908152602001600020549050919050565b6060600882604051610d589190613922565b9081526020016040518091039020805480602002602001604051908101604052809291908181526020016000905b82821015610f3c5783829060005260206000209060040201604051806080016040529081600082018054610db9906140e8565b80601f0160208091040260200160405190810160405280929190818152602001828054610de5906140e8565b8015610e325780601f10610e0757610100808354040283529160200191610e32565b820191906000526020600020905b815481529060010190602001808311610e1557829003601f168201915b50505050508152602001600182018054610e4b906140e8565b80601f0160208091040260200160405190810160405280929190818152602001828054610e77906140e8565b8015610ec45780601f10610e9957610100808354040283529160200191610ec4565b820191906000526020600020905b815481529060010190602001808311610ea757829003601f168201915b505050505081526020016002820160009054906101000a900473ffffffffffffffffffffffffffffffffffffffff1673ffffffffffffffffffffffffffffffffffffffff1673ffffffffffffffffffffffffffffffffffffffff16815260200160038201548152505081526020019060010190610d86565b505050509050919050565b600c6020528060005260406000206000915054906101000a900460ff1681565b6007602052806000526040600020600091509050806000015490806001018054610f90906140e8565b80601f0160208091040260200160405190810160405280929190818152602001828054610fbc906140e8565b80156110095780601f10610fde57610100808354040283529160200191611009565b820191906000526020600020905b815481529060010190602001808311610fec57829003601f168201915b50505050509080600201805461101e906140e8565b80601f016020809104026020016040519081016040528092919081815260200182805461104a906140e8565b80156110975780601f1061106c57610100808354040283529160200191611097565b820191906000526020600020905b81548152906001019060200180831161107a57829003601f168201915b5050505050908060030180546110ac906140e8565b80601f01602080910402602001604051908101604052809291908181526020018280546110d8906140e8565b80156111255780601f106110fa57610100808354040283529160200191611125565b820191906000526020600020905b81548152906001019060200180831161110857829003601f168201915b5050505050908060040154905085565b606060018054611144906140e8565b80601f0160208091040260200160405190810160405280929190818152602001828054611170906140e8565b80156111bd5780601f10611192576101008083540402835291602001916111bd565b820191906000526020600020905b8154815290600101906020018083116111a057829003601f168201915b5050505050905090565b6111d96111d2611f4f565b838361230c565b5050565b600d818051602081018201805184825260208301602085012081835280955050505050506000915054906101000a900460ff1681565b600060405180608001604052808381526020018481526020013373ffffffffffffffffffffffffffffffffffffffff16815260200142815250905060088260405161125e9190613922565b908152602001604051809103902081908060018154018082558091505060019003906000526020600020906004020160009091909190915060008201518160000190805190602001906112b2929190612d16565b5060208201518160010190805190602001906112cf929190612d16565b5060408201518160020160006101000a81548173ffffffffffffffffffffffffffffffffffffffff021916908373ffffffffffffffffffffffffffffffffffffffff1602179055506060820151816003015550507f1889705fbc83fba5b0243530ae8d6ee1695b4a894d6f5356cfecbb366c7d7217816040516113529190613d2b565b60405180910390a1505050565b61137061136a611f4f565b83612010565b6113af576040517f08c379a00000000000000000000000000000000000000000000000000000000081526004016113a690613ce9565b60405180910390fd5b6113bb84848484612479565b50505050565b606081600c600082815260200190815260200160002060009054906101000a900460ff16611424576040517f08c379a000000000000000000000000000000000000000000000000000000000815260040161141b90613b49565b60405180910390fd5b600a60008481526020019081526020016000208054806020026020016040519081016040528092919081815260200182805480156114b757602002820191906000526020600020905b8160009054906101000a900473ffffffffffffffffffffffffffffffffffffffff1673ffffffffffffffffffffffffffffffffffffffff168152602001906001019080831161146d575b5050505050915050919050565b600a60205281600052604060002081815481106114e057600080fd5b906000526020600020016000915091509054906101000a900473ffffffffffffffffffffffffffffffffffffffff1681565b60606000600760008481526020019081526020016000206040518060a00160405290816000820154815260200160018201805461154e906140e8565b80601f016020809104026020016040519081016040528092919081815260200182805461157a906140e8565b80156115c75780601f1061159c576101008083540402835291602001916115c7565b820191906000526020600020905b8154815290600101906020018083116115aa57829003601f168201915b505050505081526020016002820180546115e0906140e8565b80601f016020809104026020016040519081016040528092919081815260200182805461160c906140e8565b80156116595780601f1061162e57610100808354040283529160200191611659565b820191906000526020600020905b81548152906001019060200180831161163c57829003601f168201915b50505050508152602001600382018054611672906140e8565b80601f016020809104026020016040519081016040528092919081815260200182805461169e906140e8565b80156116eb5780601f106116c0576101008083540402835291602001916116eb565b820191906000526020600020905b8154815290600101906020018083116116ce57829003601f168201915b505050505081526020016004820154815250509050600081606001519050600061172a600a6000878152602001908152602001600020805490506124d5565b90506000611768846040015161173f886124d5565b85856040516020016117549493929190613939565b604051602081830303815290604052612682565b905060008160405160200161177d91906139ae565b60405160208183030381529060405290508095505050505050919050565b80600c600082815260200190815260200160002060009054906101000a900460ff166117fc576040517f08c379a00000000000000000000000000000000000000000000000000000000081526004016117f390613b49565b60405180910390fd5b600a6000838152602001908152602001600020339080600181540180825580915050600190039060005260206000200160009091909190916101000a81548173ffffffffffffffffffffffffffffffffffffffff021916908373ffffffffffffffffffffffffffffffffffffffff1602179055507f858fe9772737f157575a53bbd05894cea1924797441fceffee8657ad6417b7293360405161189f91906139d0565b60405180910390a15050565b82600d816040516118bc9190613922565b908152602001604051809103902060009054906101000a900460ff1615611918576040517f08c379a000000000000000000000000000000000000000000000000000000000815260040161190f90613cc9565b60405180910390fd5b60006119246006612840565b9050611930338261284e565b60006040518060a00160405280838152602001868152602001878152602001858152602001600081525090508060076000848152602001908152602001600020600082015181600001556020820151816001019080519060200190611996929190612d16565b5060408201518160020190805190602001906119b3929190612d16565b5060608201518160030190805190602001906119d0929190612d16565b5060808201518160040155905050336009600084815260200190815260200160002060006101000a81548173ffffffffffffffffffffffffffffffffffffffff021916908373ffffffffffffffffffffffffffffffffffffffff1602179055506001600c600084815260200190815260200160002060006101000a81548160ff0219169083151502179055506001600d87604051611a6e9190613922565b908152602001604051809103902060006101000a81548160ff021916908315150217905550611a9d600661286c565b7f5ab88be422f90ac92b9a7f53df3b8704dfcb0ca7ec930176b12af0aa9cf4b60c338383604051611ad093929190613a37565b60405180910390a1505050505050565b6000600560008473ffffffffffffffffffffffffffffffffffffffff1673ffffffffffffffffffffffffffffffffffffffff16815260200190815260200160002060008373ffffffffffffffffffffffffffffffffffffffff1673ffffffffffffffffffffffffffffffffffffffff16815260200190815260200160002060009054906101000a900460ff16905092915050565b600b828051602081018201805184825260208301602085012081835280955050505050508181548110611ba657600080fd5b906000526020600020906004020160009150915050806000018054611bca906140e8565b80601f0160208091040260200160405190810160405280929190818152602001828054611bf6906140e8565b8015611c435780601f10611c1857610100808354040283529160200191611c43565b820191906000526020600020905b815481529060010190602001808311611c2657829003601f168201915b505050505090806001018054611c58906140e8565b80601f0160208091040260200160405190810160405280929190818152602001828054611c84906140e8565b8015611cd15780601f10611ca657610100808354040283529160200191611cd1565b820191906000526020600020905b815481529060010190602001808311611cb457829003601f168201915b5050505050908060020160009054906101000a900473ffffffffffffffffffffffffffffffffffffffff16908060030154905084565b6008828051602081018201805184825260208301602085012081835280955050505050508181548110611d3957600080fd5b906000526020600020906004020160009150915050806000018054611d5d906140e8565b80601f0160208091040260200160405190810160405280929190818152602001828054611d89906140e8565b8015611dd65780601f10611dab57610100808354040283529160200191611dd6565b820191906000526020600020905b815481529060010190602001808311611db957829003601f168201915b505050505090806001018054611deb906140e8565b80601f0160208091040260200160405190810160405280929190818152602001828054611e17906140e8565b8015611e645780601f10611e3957610100808354040283529160200191611e64565b820191906000526020600020905b815481529060010190602001808311611e4757829003601f168201915b5050505050908060020160009054906101000a900473ffffffffffffffffffffffffffffffffffffffff16908060030154905084565b60007f01ffc9a7000000000000000000000000000000000000000000000000000000007bffffffffffffffffffffffffffffffffffffffffffffffffffffffff1916827bffffffffffffffffffffffffffffffffffffffffffffffffffffffff1916149050919050565b611f0d81612882565b611f4c576040517f08c379a0000000000000000000000000000000000000000000000000000000008152600401611f4390613c69565b60405180910390fd5b50565b600033905090565b816004600083815260200190815260200160002060006101000a81548173ffffffffffffffffffffffffffffffffffffffff021916908373ffffffffffffffffffffffffffffffffffffffff160217905550808273ffffffffffffffffffffffffffffffffffffffff16611fca83610bdc565b73ffffffffffffffffffffffffffffffffffffffff167f8c5be1e5ebec7d5bd14f71427d1e84f3dd0314c0f7b2291e5b200ac8c7c3b92560405160405180910390a45050565b60008061201c83610bdc565b90508073ffffffffffffffffffffffffffffffffffffffff168473ffffffffffffffffffffffffffffffffffffffff16148061205e575061205d8185611ae0565b5b8061209c57508373ffffffffffffffffffffffffffffffffffffffff166120848461072d565b73ffffffffffffffffffffffffffffffffffffffff16145b91505092915050565b8273ffffffffffffffffffffffffffffffffffffffff166120c582610bdc565b73ffffffffffffffffffffffffffffffffffffffff161461211b576040517f08c379a000000000000000000000000000000000000000000000000000000000815260040161211290613b89565b60405180910390fd5b600073ffffffffffffffffffffffffffffffffffffffff168273ffffffffffffffffffffffffffffffffffffffff16141561218b576040517f08c379a000000000000000000000000000000000000000000000000000000000815260040161218290613bc9565b60405180910390fd5b6121968383836128ee565b6121a1600082611f57565b6001600360008573ffffffffffffffffffffffffffffffffffffffff1673ffffffffffffffffffffffffffffffffffffffff16815260200190815260200160002060008282546121f19190613ffe565b925050819055506001600360008473ffffffffffffffffffffffffffffffffffffffff1673ffffffffffffffffffffffffffffffffffffffff16815260200190815260200160002060008282546122489190613f1d565b92505081905550816002600083815260200190815260200160002060006101000a81548173ffffffffffffffffffffffffffffffffffffffff021916908373ffffffffffffffffffffffffffffffffffffffff160217905550808273ffffffffffffffffffffffffffffffffffffffff168473ffffffffffffffffffffffffffffffffffffffff167fddf252ad1be2c89b69c2b068fc378daa952ba7f163c4a11628f55a4df523b3ef60405160405180910390a46123078383836128f3565b505050565b8173ffffffffffffffffffffffffffffffffffffffff168373ffffffffffffffffffffffffffffffffffffffff16141561237b576040517f08c379a000000000000000000000000000000000000000000000000000000000815260040161237290613be9565b60405180910390fd5b80600560008573ffffffffffffffffffffffffffffffffffffffff1673ffffffffffffffffffffffffffffffffffffffff16815260200190815260200160002060008473ffffffffffffffffffffffffffffffffffffffff1673ffffffffffffffffffffffffffffffffffffffff16815260200190815260200160002060006101000a81548160ff0219169083151502179055508173ffffffffffffffffffffffffffffffffffffffff168373ffffffffffffffffffffffffffffffffffffffff167f17307eab39ab6107e8899845ad3d59bd9653f200f220920489ca2b5937696c318360405161246c9190613ab9565b60405180910390a3505050565b6124848484846120a5565b612490848484846128f8565b6124cf576040517f08c379a00000000000000000000000000000000000000000000000000000000081526004016124c690613b69565b60405180910390fd5b50505050565b6060600082141561251d576040518060400160405280600181526020017f3000000000000000000000000000000000000000000000000000000000000000815250905061267d565b600082905060005b6000821461254f5780806125389061414b565b915050600a826125489190613f73565b9150612525565b60008167ffffffffffffffff811115612591577f4e487b7100000000000000000000000000000000000000000000000000000000600052604160045260246000fd5b6040519080825280601f01601f1916602001820160405280156125c35781602001600182028036833780820191505090505b5090505b60008514612676576001826125dc9190613ffe565b9150600a856125eb9190614194565b60306125f79190613f1d565b60f81b818381518110612633577f4e487b7100000000000000000000000000000000000000000000000000000000600052603260045260246000fd5b60200101907effffffffffffffffffffffffffffffffffffffffffffffffffffffffffffff1916908160001a905350600a8561266f9190613f73565b94506125c7565b8093505050505b919050565b606060008251905060008114156126ab576040518060200160405280600081525091505061283b565b600060036002836126bc9190613f1d565b6126c69190613f73565b60046126d29190613fa4565b905060006020826126e39190613f1d565b67ffffffffffffffff811115612722577f4e487b7100000000000000000000000000000000000000000000000000000000600052604160045260246000fd5b6040519080825280601f01601f1916602001820160405280156127545781602001600182028036833780820191505090505b5090506000604051806060016040528060408152602001614779604091399050600181016020830160005b868110156127f85760038101905062ffffff818a015116603f8160121c168401518060081b905060ff603f83600c1c1686015116810190508060081b905060ff603f8360061c1686015116810190508060081b905060ff603f831686015116810190508060e01b9050808452600484019350505061277f565b50600386066001811461281257600281146128225761282d565b613d3d60f01b600283035261282d565b603d60f81b60018303525b508484525050819450505050505b919050565b600081600001549050919050565b612868828260405180602001604052806000815250612a8f565b5050565b6001816000016000828254019250508190555050565b60008073ffffffffffffffffffffffffffffffffffffffff166002600084815260200190815260200160002060009054906101000a900473ffffffffffffffffffffffffffffffffffffffff1673ffffffffffffffffffffffffffffffffffffffff1614159050919050565b505050565b505050565b60006129198473ffffffffffffffffffffffffffffffffffffffff16612aea565b15612a82578373ffffffffffffffffffffffffffffffffffffffff1663150b7a02612942611f4f565b8786866040518563ffffffff1660e01b815260040161296494939291906139eb565b602060405180830381600087803b15801561297e57600080fd5b505af19250505080156129af57506040513d601f19601f820116820180604052508101906129ac91906130c2565b60015b612a32573d80600081146129df576040519150601f19603f3d011682016040523d82523d6000602084013e6129e4565b606091505b50600081511415612a2a576040517f08c379a0000000000000000000000000000000000000000000000000000000008152600401612a2190613b69565b60405180910390fd5b805181602001fd5b63150b7a0260e01b7bffffffffffffffffffffffffffffffffffffffffffffffffffffffff1916817bffffffffffffffffffffffffffffffffffffffffffffffffffffffff191614915050612a87565b600190505b949350505050565b612a998383612b0d565b612aa660008484846128f8565b612ae5576040517f08c379a0000000000000000000000000000000000000000000000000000000008152600401612adc90613b69565b60405180910390fd5b505050565b6000808273ffffffffffffffffffffffffffffffffffffffff163b119050919050565b600073ffffffffffffffffffffffffffffffffffffffff168273ffffffffffffffffffffffffffffffffffffffff161415612b7d576040517f08c379a0000000000000000000000000000000000000000000000000000000008152600401612b7490613c49565b60405180910390fd5b612b8681612882565b15612bc6576040517f08c379a0000000000000000000000000000000000000000000000000000000008152600401612bbd90613ba9565b60405180910390fd5b612bd2600083836128ee565b6001600360008473ffffffffffffffffffffffffffffffffffffffff1673ffffffffffffffffffffffffffffffffffffffff1681526020019081526020016000206000828254612c229190613f1d565b92505081905550816002600083815260200190815260200160002060006101000a81548173ffffffffffffffffffffffffffffffffffffffff021916908373ffffffffffffffffffffffffffffffffffffffff160217905550808273ffffffffffffffffffffffffffffffffffffffff16600073ffffffffffffffffffffffffffffffffffffffff167fddf252ad1be2c89b69c2b068fc378daa952ba7f163c4a11628f55a4df523b3ef60405160405180910390a4612ce3600083836128f3565b5050565b6040518060a0016040528060008152602001606081526020016060815260200160608152602001600081525090565b828054612d22906140e8565b90600052602060002090601f016020900481019282612d445760008555612d8b565b82601f10612d5d57805160ff1916838001178555612d8b565b82800160010185558215612d8b579182015b82811115612d8a578251825591602001919060010190612d6f565b5b509050612d989190612d9c565b5090565b5b80821115612db5576000816000905550600101612d9d565b5090565b6000612dcc612dc784613df5565b613dd0565b905082815260208101848484011115612de457600080fd5b612def8482856140a6565b509392505050565b6000612e0a612e0584613e26565b613dd0565b905082815260208101848484011115612e2257600080fd5b612e2d8482856140a6565b509392505050565b600081359050612e448161471c565b92915050565b600081359050612e5981614733565b92915050565b600081359050612e6e8161474a565b92915050565b600081519050612e838161474a565b92915050565b600082601f830112612e9a57600080fd5b8135612eaa848260208601612db9565b91505092915050565b600082601f830112612ec457600080fd5b8135612ed4848260208601612df7565b91505092915050565b600081359050612eec81614761565b92915050565b600060208284031215612f0457600080fd5b6000612f1284828501612e35565b91505092915050565b60008060408385031215612f2e57600080fd5b6000612f3c85828601612e35565b9250506020612f4d85828601612e35565b9150509250929050565b600080600060608486031215612f6c57600080fd5b6000612f7a86828701612e35565b9350506020612f8b86828701612e35565b9250506040612f9c86828701612edd565b9150509250925092565b60008060008060808587031215612fbc57600080fd5b6000612fca87828801612e35565b9450506020612fdb87828801612e35565b9350506040612fec87828801612edd565b925050606085013567ffffffffffffffff81111561300957600080fd5b61301587828801612e89565b91505092959194509250565b6000806040838503121561303457600080fd5b600061304285828601612e35565b925050602061305385828601612e4a565b9150509250929050565b6000806040838503121561307057600080fd5b600061307e85828601612e35565b925050602061308f85828601612edd565b9150509250929050565b6000602082840312156130ab57600080fd5b60006130b984828501612e5f565b91505092915050565b6000602082840312156130d457600080fd5b60006130e284828501612e74565b91505092915050565b6000602082840312156130fd57600080fd5b600082013567ffffffffffffffff81111561311757600080fd5b61312384828501612eb3565b91505092915050565b6000806040838503121561313f57600080fd5b600083013567ffffffffffffffff81111561315957600080fd5b61316585828601612eb3565b925050602083013567ffffffffffffffff81111561318257600080fd5b61318e85828601612eb3565b9150509250929050565b6000806000606084860312156131ad57600080fd5b600084013567ffffffffffffffff8111156131c757600080fd5b6131d386828701612eb3565b935050602084013567ffffffffffffffff8111156131f057600080fd5b6131fc86828701612eb3565b925050604084013567ffffffffffffffff81111561321957600080fd5b61322586828701612eb3565b9150509250925092565b6000806040838503121561324257600080fd5b600083013567ffffffffffffffff81111561325c57600080fd5b61326885828601612eb3565b925050602061327985828601612edd565b9150509250929050565b60006020828403121561329557600080fd5b60006132a384828501612edd565b91505092915050565b600080604083850312156132bf57600080fd5b60006132cd85828601612edd565b92505060206132de85828601612edd565b9150509250929050565b60006132f48383613314565b60208301905092915050565b600061330c8383613830565b905092915050565b61331d81614032565b82525050565b61332c81614032565b82525050565b600061333d82613e77565b6133478185613ebd565b935061335283613e57565b8060005b8381101561338357815161336a88826132e8565b975061337583613ea3565b925050600181019050613356565b5085935050505092915050565b600061339b82613e82565b6133a58185613ece565b9350836020820285016133b785613e67565b8060005b858110156133f357848403895281516133d48582613300565b94506133df83613eb0565b925060208a019950506001810190506133bb565b50829750879550505050505092915050565b61340e81614044565b82525050565b600061341f82613e8d565b6134298185613edf565b93506134398185602086016140b5565b61344281614281565b840191505092915050565b600061345882613e98565b6134628185613ef0565b93506134728185602086016140b5565b61347b81614281565b840191505092915050565b600061349182613e98565b61349b8185613f01565b93506134ab8185602086016140b5565b6134b481614281565b840191505092915050565b60006134ca82613e98565b6134d48185613f12565b93506134e48185602086016140b5565b80840191505092915050565b60006134fd601283613f01565b915061350882614292565b602082019050919050565b6000613520603283613f01565b915061352b826142bb565b604082019050919050565b6000613543602583613f01565b915061354e8261430a565b604082019050919050565b6000613566601c83613f01565b915061357182614359565b602082019050919050565b6000613589602483613f01565b915061359482614382565b604082019050919050565b60006135ac601983613f01565b91506135b7826143d1565b602082019050919050565b60006135cf602983613f01565b91506135da826143fa565b604082019050919050565b60006135f2601083613f12565b91506135fd82614449565b601082019050919050565b6000613615603e83613f01565b915061362082614472565b604082019050919050565b6000613638602083613f01565b9150613643826144c1565b602082019050919050565b600061365b601883613f01565b9150613666826144ea565b602082019050919050565b600061367e600d83613f12565b915061368982614513565b600d82019050919050565b60006136a1602183613f01565b91506136ac8261453c565b604082019050919050565b60006136c4601983613f01565b91506136cf8261458b565b602082019050919050565b60006136e7601d83613f12565b91506136f2826145b4565b601d82019050919050565b600061370a603883613f12565b9150613715826145dd565b603882019050919050565b600061372d600783613f12565b91506137388261462c565b600782019050919050565b6000613750601883613f01565b915061375b82614655565b602082019050919050565b6000613773602c83613f12565b915061377e8261467e565b602c82019050919050565b6000613796602e83613f01565b91506137a1826146cd565b604082019050919050565b600060a0830160008301516137c46000860182613904565b50602083015184820360208601526137dc828261344d565b915050604083015184820360408601526137f6828261344d565b91505060608301518482036060860152613810828261344d565b91505060808301516138256080860182613904565b508091505092915050565b6000608083016000830151848203600086015261384d828261344d565b91505060208301518482036020860152613867828261344d565b915050604083015161387c6040860182613314565b50606083015161388f6060860182613904565b508091505092915050565b600060808301600083015184820360008601526138b7828261344d565b915050602083015184820360208601526138d1828261344d565b91505060408301516138e66040860182613314565b5060608301516138f96060860182613904565b508091505092915050565b61390d8161409c565b82525050565b61391c8161409c565b82525050565b600061392e82846134bf565b915081905092915050565b6000613944826135e5565b915061395082876134bf565b915061395b82613671565b915061396782866134bf565b915061397282613766565b915061397e82856134bf565b9150613989826136fd565b915061399582846134bf565b91506139a082613720565b915081905095945050505050565b60006139b9826136da565b91506139c582846134bf565b915081905092915050565b60006020820190506139e56000830184613323565b92915050565b6000608082019050613a006000830187613323565b613a0d6020830186613323565b613a1a6040830185613913565b8181036060830152613a2c8184613414565b905095945050505050565b6000606082019050613a4c6000830186613323565b613a596020830185613913565b8181036040830152613a6b81846137ac565b9050949350505050565b60006020820190508181036000830152613a8f8184613332565b905092915050565b60006020820190508181036000830152613ab18184613390565b905092915050565b6000602082019050613ace6000830184613405565b92915050565b60006020820190508181036000830152613aee8184613486565b905092915050565b60006080820190508181036000830152613b108187613486565b90508181036020830152613b248186613486565b9050613b336040830185613323565b613b406060830184613913565b95945050505050565b60006020820190508181036000830152613b62816134f0565b9050919050565b60006020820190508181036000830152613b8281613513565b9050919050565b60006020820190508181036000830152613ba281613536565b9050919050565b60006020820190508181036000830152613bc281613559565b9050919050565b60006020820190508181036000830152613be28161357c565b9050919050565b60006020820190508181036000830152613c028161359f565b9050919050565b60006020820190508181036000830152613c22816135c2565b9050919050565b60006020820190508181036000830152613c4281613608565b9050919050565b60006020820190508181036000830152613c628161362b565b9050919050565b60006020820190508181036000830152613c828161364e565b9050919050565b60006020820190508181036000830152613ca281613694565b9050919050565b60006020820190508181036000830152613cc2816136b7565b9050919050565b60006020820190508181036000830152613ce281613743565b9050919050565b60006020820190508181036000830152613d0281613789565b9050919050565b60006020820190508181036000830152613d2381846137ac565b905092915050565b60006020820190508181036000830152613d45818461389a565b905092915050565b6000602082019050613d626000830184613913565b92915050565b600060a082019050613d7d6000830188613913565b8181036020830152613d8f8187613486565b90508181036040830152613da38186613486565b90508181036060830152613db78185613486565b9050613dc66080830184613913565b9695505050505050565b6000613dda613deb565b9050613de6828261411a565b919050565b6000604051905090565b600067ffffffffffffffff821115613e1057613e0f614252565b5b613e1982614281565b9050602081019050919050565b600067ffffffffffffffff821115613e4157613e40614252565b5b613e4a82614281565b9050602081019050919050565b6000819050602082019050919050565b6000819050602082019050919050565b600081519050919050565b600081519050919050565b600081519050919050565b600081519050919050565b6000602082019050919050565b6000602082019050919050565b600082825260208201905092915050565b600082825260208201905092915050565b600082825260208201905092915050565b600082825260208201905092915050565b600082825260208201905092915050565b600081905092915050565b6000613f288261409c565b9150613f338361409c565b9250827fffffffffffffffffffffffffffffffffffffffffffffffffffffffffffffffff03821115613f6857613f676141c5565b5b828201905092915050565b6000613f7e8261409c565b9150613f898361409c565b925082613f9957613f986141f4565b5b828204905092915050565b6000613faf8261409c565b9150613fba8361409c565b9250817fffffffffffffffffffffffffffffffffffffffffffffffffffffffffffffffff0483118215151615613ff357613ff26141c5565b5b828202905092915050565b60006140098261409c565b91506140148361409c565b925082821015614027576140266141c5565b5b828203905092915050565b600061403d8261407c565b9050919050565b60008115159050919050565b60007fffffffff0000000000000000000000000000000000000000000000000000000082169050919050565b600073ffffffffffffffffffffffffffffffffffffffff82169050919050565b6000819050919050565b82818337600083830152505050565b60005b838110156140d35780820151818401526020810190506140b8565b838111156140e2576000848401525b50505050565b6000600282049050600182168061410057607f821691505b6020821081141561411457614113614223565b5b50919050565b61412382614281565b810181811067ffffffffffffffff8211171561414257614141614252565b5b80604052505050565b60006141568261409c565b91507fffffffffffffffffffffffffffffffffffffffffffffffffffffffffffffffff821415614189576141886141c5565b5b600182019050919050565b600061419f8261409c565b91506141aa8361409c565b9250826141ba576141b96141f4565b5b828206905092915050565b7f4e487b7100000000000000000000000000000000000000000000000000000000600052601160045260246000fd5b7f4e487b7100000000000000000000000000000000000000000000000000000000600052601260045260246000fd5b7f4e487b7100000000000000000000000000000000000000000000000000000000600052602260045260246000fd5b7f4e487b7100000000000000000000000000000000000000000000000000000000600052604160045260246000fd5b6000601f19601f8301169050919050565b7f426c6f6720646f65736e27742065786973740000000000000000000000000000600082015250565b7f4552433732313a207472616e7366657220746f206e6f6e20455243373231526560008201527f63656976657220696d706c656d656e7465720000000000000000000000000000602082015250565b7f4552433732313a207472616e736665722066726f6d20696e636f72726563742060008201527f6f776e6572000000000000000000000000000000000000000000000000000000602082015250565b7f4552433732313a20746f6b656e20616c7265616479206d696e74656400000000600082015250565b7f4552433732313a207472616e7366657220746f20746865207a65726f2061646460008201527f7265737300000000000000000000000000000000000000000000000000000000602082015250565b7f4552433732313a20617070726f766520746f2063616c6c657200000000000000600082015250565b7f4552433732313a2061646472657373207a65726f206973206e6f74206120766160008201527f6c6964206f776e65720000000000000000000000000000000000000000000000602082015250565b7f7b22426c6f67205469746c65223a202200000000000000000000000000000000600082015250565b7f4552433732313a20617070726f76652063616c6c6572206973206e6f7420746f60008201527f6b656e206f776e6572206e6f7220617070726f76656420666f7220616c6c0000602082015250565b7f4552433732313a206d696e7420746f20746865207a65726f2061646472657373600082015250565b7f4552433732313a20696e76616c696420746f6b656e2049440000000000000000600082015250565b7f222c22426c6f67204e6f3a202200000000000000000000000000000000000000600082015250565b7f4552433732313a20617070726f76616c20746f2063757272656e74206f776e6560008201527f7200000000000000000000000000000000000000000000000000000000000000602082015250565b7f4e6f7420746865206f776e6572206f662074686520626c6f6700000000000000600082015250565b7f646174613a6170706c69636174696f6e2f6a736f6e3b6261736536342c000000600082015250565b7f222c2261747472696275746573223a205b207b202274726169745f747970652260008201527f3a2022466f6c6c6f77657273222c202276616c7565223a200000000000000000602082015250565b7f7d2c207d205d7d00000000000000000000000000000000000000000000000000600082015250565b7f426c6f67206e616d6520616c7265616479206578697374210000000000000000600082015250565b7f222c20226465736372697074696f6e223a2022426c6f636b696679204e46542260008201527f2c2022696d616765223a20220000000000000000000000000000000000000000602082015250565b7f4552433732313a2063616c6c6572206973206e6f7420746f6b656e206f776e6560008201527f72206e6f7220617070726f766564000000000000000000000000000000000000602082015250565b61472581614032565b811461473057600080fd5b50565b61473c81614044565b811461474757600080fd5b50565b61475381614050565b811461475e57600080fd5b50565b61476a8161409c565b811461477557600080fd5b5056fe4142434445464748494a4b4c4d4e4f505152535455565758595a6162636465666768696a6b6c6d6e6f707172737475767778797a303132333435363738392b2fa264697066735822122075ddd437679a88d22df8ef962027ac266a1bbcf25418be3cae26d3cf30bc2b4764736f6c63430008010033",
  "linkReferences": {},
  "deployedLinkReferences": {}
}