{
  "_format": "hh-sol-artifact-1",
  "contractName": "Blockify",
  "sourceName": "contracts/Blockify.sol",
  "abi": [
    {
      "inputs": [],
      "stateMutability": "nonpayable",
      "type": "constructor"
    },
    {
      "anonymous": false,
      "inputs": [
        {
          "indexed": true,
          "internalType": "address",
          "name": "owner",
          "type": "address"
        },
        {
          "indexed": true,
          "internalType": "address",
          "name": "approved",
          "type": "address"
        },
        {
          "indexed": true,
          "internalType": "uint256",
          "name": "tokenId",
          "type": "uint256"
        }
      ],
      "name": "Approval",
      "type": "event"
    },
    {
      "anonymous": false,
      "inputs": [
        {
          "indexed": true,
          "internalType": "address",
          "name": "owner",
          "type": "address"
        },
        {
          "indexed": true,
          "internalType": "address",
          "name": "operator",
          "type": "address"
        },
        {
          "indexed": false,
          "internalType": "bool",
          "name": "approved",
          "type": "bool"
        }
      ],
      "name": "ApprovalForAll",
      "type": "event"
    },
    {
      "anonymous": false,
      "inputs": [
        {
          "indexed": false,
          "internalType": "uint256",
          "name": "blogId",
          "type": "uint256"
        },
        {
          "indexed": false,
          "internalType": "address",
          "name": "follower",
          "type": "address"
        }
      ],
      "name": "BlogFollowed",
      "type": "event"
    },
    {
      "anonymous": false,
      "inputs": [
        {
          "indexed": false,
          "internalType": "address",
          "name": "sender",
          "type": "address"
        },
        {
          "indexed": false,
          "internalType": "uint256",
          "name": "blogId",
          "type": "uint256"
        },
        {
          "components": [
            {
              "internalType": "address",
              "name": "blogOwner",
              "type": "address"
            },
            {
              "internalType": "uint256",
              "name": "blogId",
              "type": "uint256"
            },
            {
              "internalType": "string",
              "name": "blogDid",
              "type": "string"
            },
            {
              "internalType": "string",
              "name": "blogname",
              "type": "string"
            },
            {
              "internalType": "string",
              "name": "coverPicture",
              "type": "string"
            },
            {
              "internalType": "uint256",
              "name": "followers",
              "type": "uint256"
            }
          ],
          "indexed": false,
          "internalType": "struct DataTypes.Blog",
          "name": "blogData",
          "type": "tuple"
        }
      ],
      "name": "BlogNFTMinted",
      "type": "event"
    },
    {
      "anonymous": false,
      "inputs": [
        {
          "components": [
            {
              "internalType": "string",
              "name": "idOfPost",
              "type": "string"
            },
            {
              "internalType": "string",
              "name": "content",
              "type": "string"
            },
            {
              "internalType": "address",
              "name": "authorId",
              "type": "address"
            },
            {
              "internalType": "uint256",
              "name": "date",
              "type": "uint256"
            }
          ],
          "indexed": false,
          "internalType": "struct DataTypes.Comment",
          "name": "commentAdded",
          "type": "tuple"
        }
      ],
      "name": "CommentAdded",
      "type": "event"
    },
    {
      "anonymous": false,
      "inputs": [
        {
          "components": [
            {
              "internalType": "string",
              "name": "id",
              "type": "string"
            },
            {
              "internalType": "string",
              "name": "title",
              "type": "string"
            },
            {
              "internalType": "string",
              "name": "content",
              "type": "string"
            },
            {
              "internalType": "string",
              "name": "picture",
              "type": "string"
            },
            {
              "internalType": "string",
              "name": "video",
              "type": "string"
            },
            {
              "internalType": "string",
              "name": "username",
              "type": "string"
            },
            {
              "internalType": "uint256",
              "name": "authorId",
              "type": "uint256"
            },
            {
              "internalType": "uint256",
              "name": "date",
              "type": "uint256"
            }
          ],
          "indexed": false,
          "internalType": "struct DataTypes.Post",
          "name": "postAdded",
          "type": "tuple"
        }
      ],
      "name": "PostAdded",
      "type": "event"
    },
    {
      "anonymous": false,
      "inputs": [
        {
          "indexed": true,
          "internalType": "address",
          "name": "from",
          "type": "address"
        },
        {
          "indexed": true,
          "internalType": "address",
          "name": "to",
          "type": "address"
        },
        {
          "indexed": true,
          "internalType": "uint256",
          "name": "tokenId",
          "type": "uint256"
        }
      ],
      "name": "Transfer",
      "type": "event"
    },
    {
      "inputs": [],
      "name": "TOKEN_ADDRESS",
      "outputs": [
        {
          "internalType": "address",
          "name": "",
          "type": "address"
        }
      ],
      "stateMutability": "view",
      "type": "function"
    },
    {
      "inputs": [
        {
          "internalType": "string",
          "name": "_commentToAdd",
          "type": "string"
        },
        {
          "internalType": "string",
          "name": "_postId",
          "type": "string"
        },
        {
          "internalType": "address",
          "name": "_blogOwner",
          "type": "address"
        },
        {
          "internalType": "uint256",
          "name": "_blogsId",
          "type": "uint256"
        }
      ],
      "name": "addComment",
      "outputs": [],
      "stateMutability": "nonpayable",
      "type": "function"
    },
    {
      "inputs": [
        {
          "internalType": "address",
          "name": "to",
          "type": "address"
        },
        {
          "internalType": "uint256",
          "name": "tokenId",
          "type": "uint256"
        }
      ],
      "name": "approve",
      "outputs": [],
      "stateMutability": "nonpayable",
      "type": "function"
    },
    {
      "inputs": [
        {
          "internalType": "address",
          "name": "owner",
          "type": "address"
        }
      ],
      "name": "balanceOf",
      "outputs": [
        {
          "internalType": "uint256",
          "name": "",
          "type": "uint256"
        }
      ],
      "stateMutability": "view",
      "type": "function"
    },
    {
      "inputs": [
        {
          "internalType": "string",
          "name": "",
          "type": "string"
        },
        {
          "internalType": "uint256",
          "name": "",
          "type": "uint256"
        }
      ],
      "name": "blogComments",
      "outputs": [
        {
          "internalType": "string",
          "name": "idOfPost",
          "type": "string"
        },
        {
          "internalType": "string",
          "name": "content",
          "type": "string"
        },
        {
          "internalType": "address",
          "name": "authorId",
          "type": "address"
        },
        {
          "internalType": "uint256",
          "name": "date",
          "type": "uint256"
        }
      ],
      "stateMutability": "view",
      "type": "function"
    },
    {
      "inputs": [
        {
          "internalType": "uint256",
          "name": "",
          "type": "uint256"
        },
        {
          "internalType": "uint256",
          "name": "",
          "type": "uint256"
        }
      ],
      "name": "blogFollowers",
      "outputs": [
        {
          "internalType": "address",
          "name": "",
          "type": "address"
        }
      ],
      "stateMutability": "view",
      "type": "function"
    },
    {
      "inputs": [
        {
          "internalType": "uint256",
          "name": "",
          "type": "uint256"
        }
      ],
      "name": "blogs",
      "outputs": [
        {
          "internalType": "address",
          "name": "blogOwner",
          "type": "address"
        },
        {
          "internalType": "uint256",
          "name": "blogId",
          "type": "uint256"
        },
        {
          "internalType": "string",
          "name": "blogDid",
          "type": "string"
        },
        {
          "internalType": "string",
          "name": "blogname",
          "type": "string"
        },
        {
          "internalType": "string",
          "name": "coverPicture",
          "type": "string"
        },
        {
          "internalType": "uint256",
          "name": "followers",
          "type": "uint256"
        }
      ],
      "stateMutability": "view",
      "type": "function"
    },
    {
      "inputs": [
        {
          "internalType": "uint256",
          "name": "",
          "type": "uint256"
        }
      ],
      "name": "blogsOwners",
      "outputs": [
        {
          "internalType": "address",
          "name": "",
          "type": "address"
        }
      ],
      "stateMutability": "view",
      "type": "function"
    },
    {
      "inputs": [
        {
          "internalType": "uint256",
          "name": "_blogToCheckId",
          "type": "uint256"
        }
      ],
      "name": "checkProfileOwner",
      "outputs": [
        {
          "components": [
            {
              "internalType": "address",
              "name": "blogOwner",
              "type": "address"
            },
            {
              "internalType": "uint256",
              "name": "blogId",
              "type": "uint256"
            },
            {
              "internalType": "string",
              "name": "blogDid",
              "type": "string"
            },
            {
              "internalType": "string",
              "name": "blogname",
              "type": "string"
            },
            {
              "internalType": "string",
              "name": "coverPicture",
              "type": "string"
            },
            {
              "internalType": "uint256",
              "name": "followers",
              "type": "uint256"
            }
          ],
          "internalType": "struct DataTypes.Blog",
          "name": "",
          "type": "tuple"
        }
      ],
      "stateMutability": "view",
      "type": "function"
    },
    {
      "inputs": [
        {
          "internalType": "uint256",
          "name": "",
          "type": "uint256"
        }
      ],
      "name": "doesBlogExist",
      "outputs": [
        {
          "internalType": "bool",
          "name": "",
          "type": "bool"
        }
      ],
      "stateMutability": "view",
      "type": "function"
    },
    {
      "inputs": [
        {
          "internalType": "string",
          "name": "",
          "type": "string"
        }
      ],
      "name": "doesBlognameExist",
      "outputs": [
        {
          "internalType": "bool",
          "name": "",
          "type": "bool"
        }
      ],
      "stateMutability": "view",
      "type": "function"
    },
    {
      "inputs": [
        {
          "internalType": "uint256",
          "name": "_followedBlogId",
          "type": "uint256"
        },
        {
          "internalType": "address",
          "name": "_blogOwner",
          "type": "address"
        }
      ],
      "name": "followBlog",
      "outputs": [],
      "stateMutability": "nonpayable",
      "type": "function"
    },
    {
      "inputs": [
        {
          "internalType": "uint256",
          "name": "tokenId",
          "type": "uint256"
        }
      ],
      "name": "getApproved",
      "outputs": [
        {
          "internalType": "address",
          "name": "",
          "type": "address"
        }
      ],
      "stateMutability": "view",
      "type": "function"
    },
    {
      "inputs": [
        {
          "internalType": "uint256",
          "name": "_blogFollowersId",
          "type": "uint256"
        }
      ],
      "name": "getBlogFollowers",
      "outputs": [
        {
          "internalType": "address[]",
          "name": "",
          "type": "address[]"
        }
      ],
      "stateMutability": "view",
      "type": "function"
    },
    {
      "inputs": [
        {
          "internalType": "string",
          "name": "_postId",
          "type": "string"
        }
      ],
      "name": "getComments",
      "outputs": [
        {
          "components": [
            {
              "internalType": "string",
              "name": "idOfPost",
              "type": "string"
            },
            {
              "internalType": "string",
              "name": "content",
              "type": "string"
            },
            {
              "internalType": "address",
              "name": "authorId",
              "type": "address"
            },
            {
              "internalType": "uint256",
              "name": "date",
              "type": "uint256"
            }
          ],
          "internalType": "struct DataTypes.Comment[]",
          "name": "",
          "type": "tuple[]"
        }
      ],
      "stateMutability": "view",
      "type": "function"
    },
    {
      "inputs": [
        {
          "internalType": "address",
          "name": "owner",
          "type": "address"
        },
        {
          "internalType": "address",
          "name": "operator",
          "type": "address"
        }
      ],
      "name": "isApprovedForAll",
      "outputs": [
        {
          "internalType": "bool",
          "name": "",
          "type": "bool"
        }
      ],
      "stateMutability": "view",
      "type": "function"
    },
    {
      "inputs": [
        {
          "internalType": "string",
          "name": "",
          "type": "string"
        }
      ],
      "name": "isFollower",
      "outputs": [
        {
          "internalType": "bool",
          "name": "",
          "type": "bool"
        }
      ],
      "stateMutability": "view",
      "type": "function"
    },
    {
      "inputs": [
        {
          "internalType": "string",
          "name": "_blogname",
          "type": "string"
        },
        {
          "internalType": "string",
          "name": "_blogdid",
          "type": "string"
        },
        {
          "internalType": "string",
          "name": "_coverPicture",
          "type": "string"
        }
      ],
      "name": "mintBlogNFT",
      "outputs": [],
      "stateMutability": "nonpayable",
      "type": "function"
    },
    {
      "inputs": [],
      "name": "name",
      "outputs": [
        {
          "internalType": "string",
          "name": "",
          "type": "string"
        }
      ],
      "stateMutability": "view",
      "type": "function"
    },
    {
      "inputs": [
        {
          "internalType": "uint256",
          "name": "tokenId",
          "type": "uint256"
        }
      ],
      "name": "ownerOf",
      "outputs": [
        {
          "internalType": "address",
          "name": "",
          "type": "address"
        }
      ],
      "stateMutability": "view",
      "type": "function"
    },
    {
      "inputs": [
        {
          "internalType": "string",
          "name": "",
          "type": "string"
        },
        {
          "internalType": "uint256",
          "name": "",
          "type": "uint256"
        }
      ],
      "name": "postComments",
      "outputs": [
        {
          "internalType": "string",
          "name": "idOfPost",
          "type": "string"
        },
        {
          "internalType": "string",
          "name": "content",
          "type": "string"
        },
        {
          "internalType": "address",
          "name": "authorId",
          "type": "address"
        },
        {
          "internalType": "uint256",
          "name": "date",
          "type": "uint256"
        }
      ],
      "stateMutability": "view",
      "type": "function"
    },
    {
      "inputs": [
        {
          "internalType": "address",
          "name": "from",
          "type": "address"
        },
        {
          "internalType": "address",
          "name": "to",
          "type": "address"
        },
        {
          "internalType": "uint256",
          "name": "tokenId",
          "type": "uint256"
        }
      ],
      "name": "safeTransferFrom",
      "outputs": [],
      "stateMutability": "nonpayable",
      "type": "function"
    },
    {
      "inputs": [
        {
          "internalType": "address",
          "name": "from",
          "type": "address"
        },
        {
          "internalType": "address",
          "name": "to",
          "type": "address"
        },
        {
          "internalType": "uint256",
          "name": "tokenId",
          "type": "uint256"
        },
        {
          "internalType": "bytes",
          "name": "data",
          "type": "bytes"
        }
      ],
      "name": "safeTransferFrom",
      "outputs": [],
      "stateMutability": "nonpayable",
      "type": "function"
    },
    {
      "inputs": [
        {
          "internalType": "address",
          "name": "operator",
          "type": "address"
        },
        {
          "internalType": "bool",
          "name": "approved",
          "type": "bool"
        }
      ],
      "name": "setApprovalForAll",
      "outputs": [],
      "stateMutability": "nonpayable",
      "type": "function"
    },
    {
      "inputs": [
        {
          "internalType": "bytes4",
          "name": "interfaceId",
          "type": "bytes4"
        }
      ],
      "name": "supportsInterface",
      "outputs": [
        {
          "internalType": "bool",
          "name": "",
          "type": "bool"
        }
      ],
      "stateMutability": "view",
      "type": "function"
    },
    {
      "inputs": [],
      "name": "symbol",
      "outputs": [
        {
          "internalType": "string",
          "name": "",
          "type": "string"
        }
      ],
      "stateMutability": "view",
      "type": "function"
    },
    {
      "inputs": [
        {
          "internalType": "uint256",
          "name": "_tokenId",
          "type": "uint256"
        }
      ],
      "name": "tokenURI",
      "outputs": [
        {
          "internalType": "string",
          "name": "",
          "type": "string"
        }
      ],
      "stateMutability": "view",
      "type": "function"
    },
    {
      "inputs": [
        {
          "internalType": "address",
          "name": "from",
          "type": "address"
        },
        {
          "internalType": "address",
          "name": "to",
          "type": "address"
        },
        {
          "internalType": "uint256",
          "name": "tokenId",
          "type": "uint256"
        }
      ],
      "name": "transferFrom",
      "outputs": [],
      "stateMutability": "nonpayable",
      "type": "function"
    }
  ],
  "bytecode": "0x6080604052739460802a8a65b3de37f0d93539ffdb57bbf52bf2600660006101000a81548173ffffffffffffffffffffffffffffffffffffffff021916908373ffffffffffffffffffffffffffffffffffffffff1602179055503480156200006657600080fd5b506040518060400160405280600881526020017f426c6f636b6966790000000000000000000000000000000000000000000000008152506040518060400160405280600481526020017f42474659000000000000000000000000000000000000000000000000000000008152508160009080519060200190620000eb9291906200010d565b508060019080519060200190620001049291906200010d565b50505062000222565b8280546200011b90620001bd565b90600052602060002090601f0160209004810192826200013f57600085556200018b565b82601f106200015a57805160ff19168380011785556200018b565b828001600101855582156200018b579182015b828111156200018a5782518255916020019190600101906200016d565b5b5090506200019a91906200019e565b5090565b5b80821115620001b95760008160009055506001016200019f565b5090565b60006002820490506001821680620001d657607f821691505b60208210811415620001ed57620001ec620001f3565b5b50919050565b7f4e487b7100000000000000000000000000000000000000000000000000000000600052602260045260246000fd5b61534f80620002326000396000f3fe608060405234801561001057600080fd5b50600436106101c45760003560e01c806373035113116100f9578063ba8d552711610097578063df6ac8d011610071578063df6ac8d01461058c578063e985e9c5146105a8578063fb3d9460146105d8578063ffde2b471461060b576101c4565b8063ba8d5527146104fc578063c09415571461052c578063c87b56dd1461055c576101c4565b806395d89b41116100d357806395d89b4114610476578063a22cb46514610494578063a90de303146104b0578063b88d4fde146104e0576101c4565b806373035113146103f557806380f052d8146104255780638b6827e21461045a576101c4565b806319fd821e11610166578063527d3f3f11610140578063527d3f3f146103495780636352211e1461036557806370a082311461039557806370c63fcc146103c5576101c4565b806319fd821e146102e157806323b872dd1461031157806342842e0e1461032d576101c4565b8063081812fc116101a2578063081812fc14610247578063095ea7b3146102775780630bdf530014610293578063137e47f1146102b1576101c4565b806301ffc9a7146101c9578063021e829c146101f957806306fdde0314610229575b600080fd5b6101e360048036038101906101de9190613915565b61063e565b6040516101f09190614505565b60405180910390f35b610213600480360381019061020e9190613967565b610720565b6040516102209190614505565b60405180910390f35b610231610756565b60405161023e9190614520565b60405180910390f35b610261600480360381019061025c9190613b26565b6107e8565b60405161026e919061437d565b60405180910390f35b610291600480360381019061028c91906138d9565b61082e565b005b61029b610946565b6040516102a8919061437d565b60405180910390f35b6102cb60048036038101906102c69190613b26565b61095e565b6040516102d891906147b5565b60405180910390f35b6102fb60048036038101906102f69190613b26565b610c52565b604051610308919061437d565b60405180910390f35b61032b600480360381019061032691906137d3565b610c85565b005b610347600480360381019061034291906137d3565b610ce5565b005b610363600480360381019061035e9190613b4f565b610d05565b005b61037f600480360381019061037a9190613b26565b610f9f565b60405161038c919061437d565b60405180910390f35b6103af60048036038101906103aa919061376e565b611051565b6040516103bc91906147f9565b60405180910390f35b6103df60048036038101906103da9190613967565b611109565b6040516103ec91906144e3565b60405180910390f35b61040f600480360381019061040a9190613b26565b61130a565b60405161041c9190614505565b60405180910390f35b61043f600480360381019061043a9190613b26565b61132a565b6040516104519695949392919061440d565b60405180910390f35b610474600480360381019061046f91906139a8565b61151e565b005b61047e6117bb565b60405161048b9190614520565b60405180910390f35b6104ae60048036038101906104a9919061389d565b61184d565b005b6104ca60048036038101906104c59190613967565b611863565b6040516104d79190614505565b60405180910390f35b6104fa60048036038101906104f59190613822565b611899565b005b61051660048036038101906105119190613b26565b6118fb565b60405161052391906144c1565b60405180910390f35b61054660048036038101906105419190613b8b565b6119fe565b604051610553919061437d565b60405180910390f35b61057660048036038101906105719190613b26565b611a4c565b6040516105839190614520565b60405180910390f35b6105a660048036038101906105a19190613a3b565b611d2b565b005b6105c260048036038101906105bd9190613797565b612045565b6040516105cf9190614505565b60405180910390f35b6105f260048036038101906105ed9190613ad2565b6120d9565b6040516106029493929190614542565b60405180910390f35b61062560048036038101906106209190613ad2565b61226c565b6040516106359493929190614542565b60405180910390f35b60007f80ac58cd000000000000000000000000000000000000000000000000000000007bffffffffffffffffffffffffffffffffffffffffffffffffffffffff1916827bffffffffffffffffffffffffffffffffffffffffffffffffffffffff1916148061070957507f5b5e139f000000000000000000000000000000000000000000000000000000007bffffffffffffffffffffffffffffffffffffffffffffffffffffffff1916827bffffffffffffffffffffffffffffffffffffffffffffffffffffffff1916145b806107195750610718826123ff565b5b9050919050565b600c818051602081018201805184825260208301602085012081835280955050505050506000915054906101000a900460ff1681565b60606000805461076590614b7f565b80601f016020809104026020016040519081016040528092919081815260200182805461079190614b7f565b80156107de5780601f106107b3576101008083540402835291602001916107de565b820191906000526020600020905b8154815290600101906020018083116107c157829003601f168201915b5050505050905090565b60006107f382612469565b6004600083815260200190815260200160002060009054906101000a900473ffffffffffffffffffffffffffffffffffffffff169050919050565b600061083982610f9f565b90508073ffffffffffffffffffffffffffffffffffffffff168373ffffffffffffffffffffffffffffffffffffffff1614156108aa576040517f08c379a00000000000000000000000000000000000000000000000000000000081526004016108a190614715565b60405180910390fd5b8073ffffffffffffffffffffffffffffffffffffffff166108c96124b4565b73ffffffffffffffffffffffffffffffffffffffff1614806108f857506108f7816108f26124b4565b612045565b5b610937576040517f08c379a000000000000000000000000000000000000000000000000000000000815260040161092e90614695565b60405180910390fd5b61094183836124bc565b505050565b739460802a8a65b3de37f0d93539ffdb57bbf52bf281565b610966613546565b3373ffffffffffffffffffffffffffffffffffffffff16600a600084815260200190815260200160002060009054906101000a900473ffffffffffffffffffffffffffffffffffffffff1673ffffffffffffffffffffffffffffffffffffffff161415610c1257600860008381526020019081526020016000206040518060c00160405290816000820160009054906101000a900473ffffffffffffffffffffffffffffffffffffffff1673ffffffffffffffffffffffffffffffffffffffff1673ffffffffffffffffffffffffffffffffffffffff16815260200160018201548152602001600282018054610a5b90614b7f565b80601f0160208091040260200160405190810160405280929190818152602001828054610a8790614b7f565b8015610ad45780601f10610aa957610100808354040283529160200191610ad4565b820191906000526020600020905b815481529060010190602001808311610ab757829003601f168201915b50505050508152602001600382018054610aed90614b7f565b80601f0160208091040260200160405190810160405280929190818152602001828054610b1990614b7f565b8015610b665780601f10610b3b57610100808354040283529160200191610b66565b820191906000526020600020905b815481529060010190602001808311610b4957829003601f168201915b50505050508152602001600482018054610b7f90614b7f565b80601f0160208091040260200160405190810160405280929190818152602001828054610bab90614b7f565b8015610bf85780601f10610bcd57610100808354040283529160200191610bf8565b820191906000526020600020905b815481529060010190602001808311610bdb57829003601f168201915b505050505081526020016005820154815250509050610c4d565b6040517f08c379a0000000000000000000000000000000000000000000000000000000008152600401610c4490614735565b60405180910390fd5b919050565b600a6020528060005260406000206000915054906101000a900473ffffffffffffffffffffffffffffffffffffffff1681565b610c96610c906124b4565b82612575565b610cd5576040517f08c379a0000000000000000000000000000000000000000000000000000000008152600401610ccc90614795565b60405180910390fd5b610ce083838361260a565b505050565b610d0083838360405180602001604052806000815250611899565b505050565b81600e600082815260200190815260200160002060009054906101000a900460ff16610d66576040517f08c379a0000000000000000000000000000000000000000000000000000000008152600401610d5d906145b5565b60405180910390fd5b600660009054906101000a900473ffffffffffffffffffffffffffffffffffffffff1673ffffffffffffffffffffffffffffffffffffffff1663d3e1cd5933846040518363ffffffff1660e01b8152600401610dc3929190614398565b600060405180830381600087803b158015610ddd57600080fd5b505af1158015610df1573d6000803e3d6000fd5b505050506000610e183373ffffffffffffffffffffffffffffffffffffffff166014612871565b9050600081610e2686612b6b565b604051602001610e379291906142b7565b6040516020818303038152906040529050600c81604051610e5891906142a0565b908152602001604051809103902060009054906101000a900460ff1615610eb4576040517f08c379a0000000000000000000000000000000000000000000000000000000008152600401610eab90614775565b60405180910390fd5b6001600c82604051610ec691906142a0565b908152602001604051809103902060006101000a81548160ff021916908315150217905550600b6000868152602001908152602001600020339080600181540180825580915050600190039060005260206000200160009091909190916101000a81548173ffffffffffffffffffffffffffffffffffffffff021916908373ffffffffffffffffffffffffffffffffffffffff1602179055507f90fd9fb6b85311f59a02cc8d0101bff2d53f99ccf49df9bef468b58dd7d004598533604051610f90929190614814565b60405180910390a15050505050565b6000806002600084815260200190815260200160002060009054906101000a900473ffffffffffffffffffffffffffffffffffffffff169050600073ffffffffffffffffffffffffffffffffffffffff168173ffffffffffffffffffffffffffffffffffffffff161415611048576040517f08c379a000000000000000000000000000000000000000000000000000000000815260040161103f906146f5565b60405180910390fd5b80915050919050565b60008073ffffffffffffffffffffffffffffffffffffffff168273ffffffffffffffffffffffffffffffffffffffff1614156110c2576040517f08c379a00000000000000000000000000000000000000000000000000000000081526004016110b990614675565b60405180910390fd5b600360008373ffffffffffffffffffffffffffffffffffffffff1673ffffffffffffffffffffffffffffffffffffffff168152602001908152602001600020549050919050565b606060098260405161111b91906142a0565b9081526020016040518091039020805480602002602001604051908101604052809291908181526020016000905b828210156112ff578382906000526020600020906004020160405180608001604052908160008201805461117c90614b7f565b80601f01602080910402602001604051908101604052809291908181526020018280546111a890614b7f565b80156111f55780601f106111ca576101008083540402835291602001916111f5565b820191906000526020600020905b8154815290600101906020018083116111d857829003601f168201915b5050505050815260200160018201805461120e90614b7f565b80601f016020809104026020016040519081016040528092919081815260200182805461123a90614b7f565b80156112875780601f1061125c57610100808354040283529160200191611287565b820191906000526020600020905b81548152906001019060200180831161126a57829003601f168201915b505050505081526020016002820160009054906101000a900473ffffffffffffffffffffffffffffffffffffffff1673ffffffffffffffffffffffffffffffffffffffff1673ffffffffffffffffffffffffffffffffffffffff16815260200160038201548152505081526020019060010190611149565b505050509050919050565b600e6020528060005260406000206000915054906101000a900460ff1681565b60086020528060005260406000206000915090508060000160009054906101000a900473ffffffffffffffffffffffffffffffffffffffff169080600101549080600201805461137990614b7f565b80601f01602080910402602001604051908101604052809291908181526020018280546113a590614b7f565b80156113f25780601f106113c7576101008083540402835291602001916113f2565b820191906000526020600020905b8154815290600101906020018083116113d557829003601f168201915b50505050509080600301805461140790614b7f565b80601f016020809104026020016040519081016040528092919081815260200182805461143390614b7f565b80156114805780601f1061145557610100808354040283529160200191611480565b820191906000526020600020905b81548152906001019060200180831161146357829003601f168201915b50505050509080600401805461149590614b7f565b80601f01602080910402602001604051908101604052809291908181526020018280546114c190614b7f565b801561150e5780601f106114e35761010080835404028352916020019161150e565b820191906000526020600020905b8154815290600101906020018083116114f157829003601f168201915b5050505050908060050154905086565b60006115413373ffffffffffffffffffffffffffffffffffffffff166014612871565b905060008161154f84612b6b565b6040516020016115609291906142b7565b6040516020818303038152906040529050600c8160405161158191906142a0565b908152602001604051809103902060009054906101000a900460ff166115dc576040517f08c379a00000000000000000000000000000000000000000000000000000000081526004016115d3906146d5565b60405180910390fd5b600660009054906101000a900473ffffffffffffffffffffffffffffffffffffffff1673ffffffffffffffffffffffffffffffffffffffff16634bac397f33866040518363ffffffff1660e01b8152600401611639929190614398565b600060405180830381600087803b15801561165357600080fd5b505af1158015611667573d6000803e3d6000fd5b50505050600060405180608001604052808781526020018881526020013373ffffffffffffffffffffffffffffffffffffffff1681526020014281525090506009866040516116b691906142a0565b9081526020016040518091039020819080600181540180825580915050600190039060005260206000209060040201600090919091909150600082015181600001908051906020019061170a929190613592565b506020820151816001019080519060200190611727929190613592565b5060408201518160020160006101000a81548173ffffffffffffffffffffffffffffffffffffffff021916908373ffffffffffffffffffffffffffffffffffffffff1602179055506060820151816003015550507f1889705fbc83fba5b0243530ae8d6ee1695b4a894d6f5356cfecbb366c7d7217816040516117aa91906147d7565b60405180910390a150505050505050565b6060600180546117ca90614b7f565b80601f01602080910402602001604051908101604052809291908181526020018280546117f690614b7f565b80156118435780601f1061181857610100808354040283529160200191611843565b820191906000526020600020905b81548152906001019060200180831161182657829003601f168201915b5050505050905090565b61185f6118586124b4565b8383612d18565b5050565b600f818051602081018201805184825260208301602085012081835280955050505050506000915054906101000a900460ff1681565b6118aa6118a46124b4565b83612575565b6118e9576040517f08c379a00000000000000000000000000000000000000000000000000000000081526004016118e090614795565b60405180910390fd5b6118f584848484612e85565b50505050565b606081600e600082815260200190815260200160002060009054906101000a900460ff1661195e576040517f08c379a0000000000000000000000000000000000000000000000000000000008152600401611955906145b5565b60405180910390fd5b600b60008481526020019081526020016000208054806020026020016040519081016040528092919081815260200182805480156119f157602002820191906000526020600020905b8160009054906101000a900473ffffffffffffffffffffffffffffffffffffffff1673ffffffffffffffffffffffffffffffffffffffff16815260200190600101908083116119a7575b5050505050915050919050565b600b6020528160005260406000208181548110611a1a57600080fd5b906000526020600020016000915091509054906101000a900473ffffffffffffffffffffffffffffffffffffffff1681565b60606000600860008481526020019081526020016000206040518060c00160405290816000820160009054906101000a900473ffffffffffffffffffffffffffffffffffffffff1673ffffffffffffffffffffffffffffffffffffffff1673ffffffffffffffffffffffffffffffffffffffff16815260200160018201548152602001600282018054611ade90614b7f565b80601f0160208091040260200160405190810160405280929190818152602001828054611b0a90614b7f565b8015611b575780601f10611b2c57610100808354040283529160200191611b57565b820191906000526020600020905b815481529060010190602001808311611b3a57829003601f168201915b50505050508152602001600382018054611b7090614b7f565b80601f0160208091040260200160405190810160405280929190818152602001828054611b9c90614b7f565b8015611be95780601f10611bbe57610100808354040283529160200191611be9565b820191906000526020600020905b815481529060010190602001808311611bcc57829003601f168201915b50505050508152602001600482018054611c0290614b7f565b80601f0160208091040260200160405190810160405280929190818152602001828054611c2e90614b7f565b8015611c7b5780601f10611c5057610100808354040283529160200191611c7b565b820191906000526020600020905b815481529060010190602001808311611c5e57829003601f168201915b5050505050815260200160058201548152505090506000816080015190506000611cba600b600087815260200190815260200160002080549050612b6b565b90506000611cf88460600151611ccf88612b6b565b8585604051602001611ce494939291906142e6565b604051602081830303815290604052612ee1565b9050600081604051602001611d0d919061435b565b60405160208183030381529060405290508095505050505050919050565b82600f81604051611d3c91906142a0565b908152602001604051809103902060009054906101000a900460ff1615611d98576040517f08c379a0000000000000000000000000000000000000000000000000000000008152600401611d8f90614755565b60405180910390fd5b600660009054906101000a900473ffffffffffffffffffffffffffffffffffffffff1673ffffffffffffffffffffffffffffffffffffffff166386ff64e56040518163ffffffff1660e01b8152600401600060405180830381600087803b158015611e0257600080fd5b505af1158015611e16573d6000803e3d6000fd5b505050506000611e26600761309f565b9050611e3233826130ad565b60006040518060c001604052803373ffffffffffffffffffffffffffffffffffffffff16815260200183815260200186815260200187815260200185815260200160008152509050806008600084815260200190815260200160002060008201518160000160006101000a81548173ffffffffffffffffffffffffffffffffffffffff021916908373ffffffffffffffffffffffffffffffffffffffff160217905550602082015181600101556040820151816002019080519060200190611efb929190613592565b506060820151816003019080519060200190611f18929190613592565b506080820151816004019080519060200190611f35929190613592565b5060a0820151816005015590505033600a600084815260200190815260200160002060006101000a81548173ffffffffffffffffffffffffffffffffffffffff021916908373ffffffffffffffffffffffffffffffffffffffff1602179055506001600e600084815260200190815260200160002060006101000a81548160ff0219169083151502179055506001600f87604051611fd391906142a0565b908152602001604051809103902060006101000a81548160ff02191690831515021790555061200260076130cb565b7f986d176acd63fc94634c31f0365bd853aa8ce35acefabec06077c4c4b5f7931433838360405161203593929190614483565b60405180910390a1505050505050565b6000600560008473ffffffffffffffffffffffffffffffffffffffff1673ffffffffffffffffffffffffffffffffffffffff16815260200190815260200160002060008373ffffffffffffffffffffffffffffffffffffffff1673ffffffffffffffffffffffffffffffffffffffff16815260200190815260200160002060009054906101000a900460ff16905092915050565b600d82805160208101820180518482526020830160208501208183528095505050505050818154811061210b57600080fd5b90600052602060002090600402016000915091505080600001805461212f90614b7f565b80601f016020809104026020016040519081016040528092919081815260200182805461215b90614b7f565b80156121a85780601f1061217d576101008083540402835291602001916121a8565b820191906000526020600020905b81548152906001019060200180831161218b57829003601f168201915b5050505050908060010180546121bd90614b7f565b80601f01602080910402602001604051908101604052809291908181526020018280546121e990614b7f565b80156122365780601f1061220b57610100808354040283529160200191612236565b820191906000526020600020905b81548152906001019060200180831161221957829003601f168201915b5050505050908060020160009054906101000a900473ffffffffffffffffffffffffffffffffffffffff16908060030154905084565b600982805160208101820180518482526020830160208501208183528095505050505050818154811061229e57600080fd5b9060005260206000209060040201600091509150508060000180546122c290614b7f565b80601f01602080910402602001604051908101604052809291908181526020018280546122ee90614b7f565b801561233b5780601f106123105761010080835404028352916020019161233b565b820191906000526020600020905b81548152906001019060200180831161231e57829003601f168201915b50505050509080600101805461235090614b7f565b80601f016020809104026020016040519081016040528092919081815260200182805461237c90614b7f565b80156123c95780601f1061239e576101008083540402835291602001916123c9565b820191906000526020600020905b8154815290600101906020018083116123ac57829003601f168201915b5050505050908060020160009054906101000a900473ffffffffffffffffffffffffffffffffffffffff16908060030154905084565b60007f01ffc9a7000000000000000000000000000000000000000000000000000000007bffffffffffffffffffffffffffffffffffffffffffffffffffffffff1916827bffffffffffffffffffffffffffffffffffffffffffffffffffffffff1916149050919050565b612472816130e1565b6124b1576040517f08c379a00000000000000000000000000000000000000000000000000000000081526004016124a8906146f5565b60405180910390fd5b50565b600033905090565b816004600083815260200190815260200160002060006101000a81548173ffffffffffffffffffffffffffffffffffffffff021916908373ffffffffffffffffffffffffffffffffffffffff160217905550808273ffffffffffffffffffffffffffffffffffffffff1661252f83610f9f565b73ffffffffffffffffffffffffffffffffffffffff167f8c5be1e5ebec7d5bd14f71427d1e84f3dd0314c0f7b2291e5b200ac8c7c3b92560405160405180910390a45050565b60008061258183610f9f565b90508073ffffffffffffffffffffffffffffffffffffffff168473ffffffffffffffffffffffffffffffffffffffff1614806125c357506125c28185612045565b5b8061260157508373ffffffffffffffffffffffffffffffffffffffff166125e9846107e8565b73ffffffffffffffffffffffffffffffffffffffff16145b91505092915050565b8273ffffffffffffffffffffffffffffffffffffffff1661262a82610f9f565b73ffffffffffffffffffffffffffffffffffffffff1614612680576040517f08c379a0000000000000000000000000000000000000000000000000000000008152600401612677906145f5565b60405180910390fd5b600073ffffffffffffffffffffffffffffffffffffffff168273ffffffffffffffffffffffffffffffffffffffff1614156126f0576040517f08c379a00000000000000000000000000000000000000000000000000000000081526004016126e790614635565b60405180910390fd5b6126fb83838361314d565b6127066000826124bc565b6001600360008573ffffffffffffffffffffffffffffffffffffffff1673ffffffffffffffffffffffffffffffffffffffff16815260200190815260200160002060008282546127569190614a6b565b925050819055506001600360008473ffffffffffffffffffffffffffffffffffffffff1673ffffffffffffffffffffffffffffffffffffffff16815260200190815260200160002060008282546127ad919061498a565b92505081905550816002600083815260200190815260200160002060006101000a81548173ffffffffffffffffffffffffffffffffffffffff021916908373ffffffffffffffffffffffffffffffffffffffff160217905550808273ffffffffffffffffffffffffffffffffffffffff168473ffffffffffffffffffffffffffffffffffffffff167fddf252ad1be2c89b69c2b068fc378daa952ba7f163c4a11628f55a4df523b3ef60405160405180910390a461286c838383613152565b505050565b6060600060028360026128849190614a11565b61288e919061498a565b67ffffffffffffffff8111156128cd577f4e487b7100000000000000000000000000000000000000000000000000000000600052604160045260246000fd5b6040519080825280601f01601f1916602001820160405280156128ff5781602001600182028036833780820191505090505b5090507f30000000000000000000000000000000000000000000000000000000000000008160008151811061295d577f4e487b7100000000000000000000000000000000000000000000000000000000600052603260045260246000fd5b60200101907effffffffffffffffffffffffffffffffffffffffffffffffffffffffffffff1916908160001a9053507f7800000000000000000000000000000000000000000000000000000000000000816001815181106129e7577f4e487b7100000000000000000000000000000000000000000000000000000000600052603260045260246000fd5b60200101907effffffffffffffffffffffffffffffffffffffffffffffffffffffffffffff1916908160001a90535060006001846002612a279190614a11565b612a31919061498a565b90505b6001811115612b1d577f3031323334353637383961626364656600000000000000000000000000000000600f861660108110612a99577f4e487b7100000000000000000000000000000000000000000000000000000000600052603260045260246000fd5b1a60f81b828281518110612ad6577f4e487b7100000000000000000000000000000000000000000000000000000000600052603260045260246000fd5b60200101907effffffffffffffffffffffffffffffffffffffffffffffffffffffffffffff1916908160001a905350600485901c945080612b1690614b55565b9050612a34565b5060008414612b61576040517f08c379a0000000000000000000000000000000000000000000000000000000008152600401612b5890614595565b60405180910390fd5b8091505092915050565b60606000821415612bb3576040518060400160405280600181526020017f30000000000000000000000000000000000000000000000000000000000000008152509050612d13565b600082905060005b60008214612be5578080612bce90614be2565b915050600a82612bde91906149e0565b9150612bbb565b60008167ffffffffffffffff811115612c27577f4e487b7100000000000000000000000000000000000000000000000000000000600052604160045260246000fd5b6040519080825280601f01601f191660200182016040528015612c595781602001600182028036833780820191505090505b5090505b60008514612d0c57600182612c729190614a6b565b9150600a85612c819190614c2b565b6030612c8d919061498a565b60f81b818381518110612cc9577f4e487b7100000000000000000000000000000000000000000000000000000000600052603260045260246000fd5b60200101907effffffffffffffffffffffffffffffffffffffffffffffffffffffffffffff1916908160001a905350600a85612d0591906149e0565b9450612c5d565b8093505050505b919050565b8173ffffffffffffffffffffffffffffffffffffffff168373ffffffffffffffffffffffffffffffffffffffff161415612d87576040517f08c379a0000000000000000000000000000000000000000000000000000000008152600401612d7e90614655565b60405180910390fd5b80600560008573ffffffffffffffffffffffffffffffffffffffff1673ffffffffffffffffffffffffffffffffffffffff16815260200190815260200160002060008473ffffffffffffffffffffffffffffffffffffffff1673ffffffffffffffffffffffffffffffffffffffff16815260200190815260200160002060006101000a81548160ff0219169083151502179055508173ffffffffffffffffffffffffffffffffffffffff168373ffffffffffffffffffffffffffffffffffffffff167f17307eab39ab6107e8899845ad3d59bd9653f200f220920489ca2b5937696c3183604051612e789190614505565b60405180910390a3505050565b612e9084848461260a565b612e9c84848484613157565b612edb576040517f08c379a0000000000000000000000000000000000000000000000000000000008152600401612ed2906145d5565b60405180910390fd5b50505050565b60606000825190506000811415612f0a576040518060200160405280600081525091505061309a565b60006003600283612f1b919061498a565b612f2591906149e0565b6004612f319190614a11565b90506000602082612f42919061498a565b67ffffffffffffffff811115612f81577f4e487b7100000000000000000000000000000000000000000000000000000000600052604160045260246000fd5b6040519080825280601f01601f191660200182016040528015612fb35781602001600182028036833780820191505090505b50905060006040518060600160405280604081526020016152da604091399050600181016020830160005b868110156130575760038101905062ffffff818a015116603f8160121c168401518060081b905060ff603f83600c1c1686015116810190508060081b905060ff603f8360061c1686015116810190508060081b905060ff603f831686015116810190508060e01b90508084526004840193505050612fde565b50600386066001811461307157600281146130815761308c565b613d3d60f01b600283035261308c565b603d60f81b60018303525b508484525050819450505050505b919050565b600081600001549050919050565b6130c78282604051806020016040528060008152506132ee565b5050565b6001816000016000828254019250508190555050565b60008073ffffffffffffffffffffffffffffffffffffffff166002600084815260200190815260200160002060009054906101000a900473ffffffffffffffffffffffffffffffffffffffff1673ffffffffffffffffffffffffffffffffffffffff1614159050919050565b505050565b505050565b60006131788473ffffffffffffffffffffffffffffffffffffffff16613349565b156132e1578373ffffffffffffffffffffffffffffffffffffffff1663150b7a026131a16124b4565b8786866040518563ffffffff1660e01b81526004016131c394939291906143c1565b602060405180830381600087803b1580156131dd57600080fd5b505af192505050801561320e57506040513d601f19601f8201168201806040525081019061320b919061393e565b60015b613291573d806000811461323e576040519150601f19603f3d011682016040523d82523d6000602084013e613243565b606091505b50600081511415613289576040517f08c379a0000000000000000000000000000000000000000000000000000000008152600401613280906145d5565b60405180910390fd5b805181602001fd5b63150b7a0260e01b7bffffffffffffffffffffffffffffffffffffffffffffffffffffffff1916817bffffffffffffffffffffffffffffffffffffffffffffffffffffffff1916149150506132e6565b600190505b949350505050565b6132f8838361336c565b6133056000848484613157565b613344576040517f08c379a000000000000000000000000000000000000000000000000000000000815260040161333b906145d5565b60405180910390fd5b505050565b6000808273ffffffffffffffffffffffffffffffffffffffff163b119050919050565b600073ffffffffffffffffffffffffffffffffffffffff168273ffffffffffffffffffffffffffffffffffffffff1614156133dc576040517f08c379a00000000000000000000000000000000000000000000000000000000081526004016133d3906146b5565b60405180910390fd5b6133e5816130e1565b15613425576040517f08c379a000000000000000000000000000000000000000000000000000000000815260040161341c90614615565b60405180910390fd5b6134316000838361314d565b6001600360008473ffffffffffffffffffffffffffffffffffffffff1673ffffffffffffffffffffffffffffffffffffffff1681526020019081526020016000206000828254613481919061498a565b92505081905550816002600083815260200190815260200160002060006101000a81548173ffffffffffffffffffffffffffffffffffffffff021916908373ffffffffffffffffffffffffffffffffffffffff160217905550808273ffffffffffffffffffffffffffffffffffffffff16600073ffffffffffffffffffffffffffffffffffffffff167fddf252ad1be2c89b69c2b068fc378daa952ba7f163c4a11628f55a4df523b3ef60405160405180910390a461354260008383613152565b5050565b6040518060c00160405280600073ffffffffffffffffffffffffffffffffffffffff16815260200160008152602001606081526020016060815260200160608152602001600081525090565b82805461359e90614b7f565b90600052602060002090601f0160209004810192826135c05760008555613607565b82601f106135d957805160ff1916838001178555613607565b82800160010185558215613607579182015b828111156136065782518255916020019190600101906135eb565b5b5090506136149190613618565b5090565b5b80821115613631576000816000905550600101613619565b5090565b600061364861364384614862565b61483d565b90508281526020810184848401111561366057600080fd5b61366b848285614b13565b509392505050565b600061368661368184614893565b61483d565b90508281526020810184848401111561369e57600080fd5b6136a9848285614b13565b509392505050565b6000813590506136c08161527d565b92915050565b6000813590506136d581615294565b92915050565b6000813590506136ea816152ab565b92915050565b6000815190506136ff816152ab565b92915050565b600082601f83011261371657600080fd5b8135613726848260208601613635565b91505092915050565b600082601f83011261374057600080fd5b8135613750848260208601613673565b91505092915050565b600081359050613768816152c2565b92915050565b60006020828403121561378057600080fd5b600061378e848285016136b1565b91505092915050565b600080604083850312156137aa57600080fd5b60006137b8858286016136b1565b92505060206137c9858286016136b1565b9150509250929050565b6000806000606084860312156137e857600080fd5b60006137f6868287016136b1565b9350506020613807868287016136b1565b925050604061381886828701613759565b9150509250925092565b6000806000806080858703121561383857600080fd5b6000613846878288016136b1565b9450506020613857878288016136b1565b935050604061386887828801613759565b925050606085013567ffffffffffffffff81111561388557600080fd5b61389187828801613705565b91505092959194509250565b600080604083850312156138b057600080fd5b60006138be858286016136b1565b92505060206138cf858286016136c6565b9150509250929050565b600080604083850312156138ec57600080fd5b60006138fa858286016136b1565b925050602061390b85828601613759565b9150509250929050565b60006020828403121561392757600080fd5b6000613935848285016136db565b91505092915050565b60006020828403121561395057600080fd5b600061395e848285016136f0565b91505092915050565b60006020828403121561397957600080fd5b600082013567ffffffffffffffff81111561399357600080fd5b61399f8482850161372f565b91505092915050565b600080600080608085870312156139be57600080fd5b600085013567ffffffffffffffff8111156139d857600080fd5b6139e48782880161372f565b945050602085013567ffffffffffffffff811115613a0157600080fd5b613a0d8782880161372f565b9350506040613a1e878288016136b1565b9250506060613a2f87828801613759565b91505092959194509250565b600080600060608486031215613a5057600080fd5b600084013567ffffffffffffffff811115613a6a57600080fd5b613a768682870161372f565b935050602084013567ffffffffffffffff811115613a9357600080fd5b613a9f8682870161372f565b925050604084013567ffffffffffffffff811115613abc57600080fd5b613ac88682870161372f565b9150509250925092565b60008060408385031215613ae557600080fd5b600083013567ffffffffffffffff811115613aff57600080fd5b613b0b8582860161372f565b9250506020613b1c85828601613759565b9150509250929050565b600060208284031215613b3857600080fd5b6000613b4684828501613759565b91505092915050565b60008060408385031215613b6257600080fd5b6000613b7085828601613759565b9250506020613b81858286016136b1565b9150509250929050565b60008060408385031215613b9e57600080fd5b6000613bac85828601613759565b9250506020613bbd85828601613759565b9150509250929050565b6000613bd38383613bf3565b60208301905092915050565b6000613beb83836141ae565b905092915050565b613bfc81614a9f565b82525050565b613c0b81614a9f565b82525050565b6000613c1c826148e4565b613c26818561492a565b9350613c31836148c4565b8060005b83811015613c62578151613c498882613bc7565b9750613c5483614910565b925050600181019050613c35565b5085935050505092915050565b6000613c7a826148ef565b613c84818561493b565b935083602082028501613c96856148d4565b8060005b85811015613cd25784840389528151613cb38582613bdf565b9450613cbe8361491d565b925060208a01995050600181019050613c9a565b50829750879550505050505092915050565b613ced81614ab1565b82525050565b6000613cfe826148fa565b613d08818561494c565b9350613d18818560208601614b22565b613d2181614d18565b840191505092915050565b6000613d3782614905565b613d41818561495d565b9350613d51818560208601614b22565b613d5a81614d18565b840191505092915050565b6000613d7082614905565b613d7a818561496e565b9350613d8a818560208601614b22565b613d9381614d18565b840191505092915050565b6000613da982614905565b613db3818561497f565b9350613dc3818560208601614b22565b80840191505092915050565b6000613ddc60208361496e565b9150613de782614d29565b602082019050919050565b6000613dff60128361496e565b9150613e0a82614d52565b602082019050919050565b6000613e2260328361496e565b9150613e2d82614d7b565b604082019050919050565b6000613e4560258361496e565b9150613e5082614dca565b604082019050919050565b6000613e68601c8361496e565b9150613e7382614e19565b602082019050919050565b6000613e8b60248361496e565b9150613e9682614e42565b604082019050919050565b6000613eae60198361496e565b9150613eb982614e91565b602082019050919050565b6000613ed160298361496e565b9150613edc82614eba565b604082019050919050565b6000613ef460108361497f565b9150613eff82614f09565b601082019050919050565b6000613f17603e8361496e565b9150613f2282614f32565b604082019050919050565b6000613f3a60208361496e565b9150613f4582614f81565b602082019050919050565b6000613f5d60228361496e565b9150613f6882614faa565b604082019050919050565b6000613f8060188361496e565b9150613f8b82614ff9565b602082019050919050565b6000613fa3600d8361497f565b9150613fae82615022565b600d82019050919050565b6000613fc660218361496e565b9150613fd18261504b565b604082019050919050565b6000613fe960198361496e565b9150613ff48261509a565b602082019050919050565b600061400c601d8361497f565b9150614017826150c3565b601d82019050919050565b600061402f60388361497f565b915061403a826150ec565b603882019050919050565b600061405260078361497f565b915061405d8261513b565b600782019050919050565b600061407560188361496e565b915061408082615164565b602082019050919050565b600061409860018361497f565b91506140a38261518d565b600182019050919050565b60006140bb602c8361497f565b91506140c6826151b6565b602c82019050919050565b60006140de601a8361496e565b91506140e982615205565b602082019050919050565b6000614101602e8361496e565b915061410c8261522e565b604082019050919050565b600060c08301600083015161412f6000860182613bf3565b5060208301516141426020860182614282565b506040830151848203604086015261415a8282613d2c565b915050606083015184820360608601526141748282613d2c565b9150506080830151848203608086015261418e8282613d2c565b91505060a08301516141a360a0860182614282565b508091505092915050565b600060808301600083015184820360008601526141cb8282613d2c565b915050602083015184820360208601526141e58282613d2c565b91505060408301516141fa6040860182613bf3565b50606083015161420d6060860182614282565b508091505092915050565b600060808301600083015184820360008601526142358282613d2c565b9150506020830151848203602086015261424f8282613d2c565b91505060408301516142646040860182613bf3565b5060608301516142776060860182614282565b508091505092915050565b61428b81614b09565b82525050565b61429a81614b09565b82525050565b60006142ac8284613d9e565b915081905092915050565b60006142c38285613d9e565b91506142ce8261408b565b91506142da8284613d9e565b91508190509392505050565b60006142f182613ee7565b91506142fd8287613d9e565b915061430882613f96565b91506143148286613d9e565b915061431f826140ae565b915061432b8285613d9e565b915061433682614022565b91506143428284613d9e565b915061434d82614045565b915081905095945050505050565b600061436682613fff565b91506143728284613d9e565b915081905092915050565b60006020820190506143926000830184613c02565b92915050565b60006040820190506143ad6000830185613c02565b6143ba6020830184613c02565b9392505050565b60006080820190506143d66000830187613c02565b6143e36020830186613c02565b6143f06040830185614291565b81810360608301526144028184613cf3565b905095945050505050565b600060c0820190506144226000830189613c02565b61442f6020830188614291565b81810360408301526144418187613d65565b905081810360608301526144558186613d65565b905081810360808301526144698185613d65565b905061447860a0830184614291565b979650505050505050565b60006060820190506144986000830186613c02565b6144a56020830185614291565b81810360408301526144b78184614117565b9050949350505050565b600060208201905081810360008301526144db8184613c11565b905092915050565b600060208201905081810360008301526144fd8184613c6f565b905092915050565b600060208201905061451a6000830184613ce4565b92915050565b6000602082019050818103600083015261453a8184613d65565b905092915050565b6000608082019050818103600083015261455c8187613d65565b905081810360208301526145708186613d65565b905061457f6040830185613c02565b61458c6060830184614291565b95945050505050565b600060208201905081810360008301526145ae81613dcf565b9050919050565b600060208201905081810360008301526145ce81613df2565b9050919050565b600060208201905081810360008301526145ee81613e15565b9050919050565b6000602082019050818103600083015261460e81613e38565b9050919050565b6000602082019050818103600083015261462e81613e5b565b9050919050565b6000602082019050818103600083015261464e81613e7e565b9050919050565b6000602082019050818103600083015261466e81613ea1565b9050919050565b6000602082019050818103600083015261468e81613ec4565b9050919050565b600060208201905081810360008301526146ae81613f0a565b9050919050565b600060208201905081810360008301526146ce81613f2d565b9050919050565b600060208201905081810360008301526146ee81613f50565b9050919050565b6000602082019050818103600083015261470e81613f73565b9050919050565b6000602082019050818103600083015261472e81613fb9565b9050919050565b6000602082019050818103600083015261474e81613fdc565b9050919050565b6000602082019050818103600083015261476e81614068565b9050919050565b6000602082019050818103600083015261478e816140d1565b9050919050565b600060208201905081810360008301526147ae816140f4565b9050919050565b600060208201905081810360008301526147cf8184614117565b905092915050565b600060208201905081810360008301526147f18184614218565b905092915050565b600060208201905061480e6000830184614291565b92915050565b60006040820190506148296000830185614291565b6148366020830184613c02565b9392505050565b6000614847614858565b90506148538282614bb1565b919050565b6000604051905090565b600067ffffffffffffffff82111561487d5761487c614ce9565b5b61488682614d18565b9050602081019050919050565b600067ffffffffffffffff8211156148ae576148ad614ce9565b5b6148b782614d18565b9050602081019050919050565b6000819050602082019050919050565b6000819050602082019050919050565b600081519050919050565b600081519050919050565b600081519050919050565b600081519050919050565b6000602082019050919050565b6000602082019050919050565b600082825260208201905092915050565b600082825260208201905092915050565b600082825260208201905092915050565b600082825260208201905092915050565b600082825260208201905092915050565b600081905092915050565b600061499582614b09565b91506149a083614b09565b9250827fffffffffffffffffffffffffffffffffffffffffffffffffffffffffffffffff038211156149d5576149d4614c5c565b5b828201905092915050565b60006149eb82614b09565b91506149f683614b09565b925082614a0657614a05614c8b565b5b828204905092915050565b6000614a1c82614b09565b9150614a2783614b09565b9250817fffffffffffffffffffffffffffffffffffffffffffffffffffffffffffffffff0483118215151615614a6057614a5f614c5c565b5b828202905092915050565b6000614a7682614b09565b9150614a8183614b09565b925082821015614a9457614a93614c5c565b5b828203905092915050565b6000614aaa82614ae9565b9050919050565b60008115159050919050565b60007fffffffff0000000000000000000000000000000000000000000000000000000082169050919050565b600073ffffffffffffffffffffffffffffffffffffffff82169050919050565b6000819050919050565b82818337600083830152505050565b60005b83811015614b40578082015181840152602081019050614b25565b83811115614b4f576000848401525b50505050565b6000614b6082614b09565b91506000821415614b7457614b73614c5c565b5b600182039050919050565b60006002820490506001821680614b9757607f821691505b60208210811415614bab57614baa614cba565b5b50919050565b614bba82614d18565b810181811067ffffffffffffffff82111715614bd957614bd8614ce9565b5b80604052505050565b6000614bed82614b09565b91507fffffffffffffffffffffffffffffffffffffffffffffffffffffffffffffffff821415614c2057614c1f614c5c565b5b600182019050919050565b6000614c3682614b09565b9150614c4183614b09565b925082614c5157614c50614c8b565b5b828206905092915050565b7f4e487b7100000000000000000000000000000000000000000000000000000000600052601160045260246000fd5b7f4e487b7100000000000000000000000000000000000000000000000000000000600052601260045260246000fd5b7f4e487b7100000000000000000000000000000000000000000000000000000000600052602260045260246000fd5b7f4e487b7100000000000000000000000000000000000000000000000000000000600052604160045260246000fd5b6000601f19601f8301169050919050565b7f537472696e67733a20686578206c656e67746820696e73756666696369656e74600082015250565b7f426c6f6720646f65736e27742065786973740000000000000000000000000000600082015250565b7f4552433732313a207472616e7366657220746f206e6f6e20455243373231526560008201527f63656976657220696d706c656d656e7465720000000000000000000000000000602082015250565b7f4552433732313a207472616e736665722066726f6d20696e636f72726563742060008201527f6f776e6572000000000000000000000000000000000000000000000000000000602082015250565b7f4552433732313a20746f6b656e20616c7265616479206d696e74656400000000600082015250565b7f4552433732313a207472616e7366657220746f20746865207a65726f2061646460008201527f7265737300000000000000000000000000000000000000000000000000000000602082015250565b7f4552433732313a20617070726f766520746f2063616c6c657200000000000000600082015250565b7f4552433732313a2061646472657373207a65726f206973206e6f74206120766160008201527f6c6964206f776e65720000000000000000000000000000000000000000000000602082015250565b7f7b22426c6f67205469746c65223a202200000000000000000000000000000000600082015250565b7f4552433732313a20617070726f76652063616c6c6572206973206e6f7420746f60008201527f6b656e206f776e6572206e6f7220617070726f76656420666f7220616c6c0000602082015250565b7f4552433732313a206d696e7420746f20746865207a65726f2061646472657373600082015250565b7f596f75206861766520746f20626520666f6c6c6f77657220746f20636f6d6d6560008201527f6e74000000000000000000000000000000000000000000000000000000000000602082015250565b7f4552433732313a20696e76616c696420746f6b656e2049440000000000000000600082015250565b7f222c22426c6f67204e6f3a202200000000000000000000000000000000000000600082015250565b7f4552433732313a20617070726f76616c20746f2063757272656e74206f776e6560008201527f7200000000000000000000000000000000000000000000000000000000000000602082015250565b7f4e6f7420746865206f776e6572206f662074686520626c6f6700000000000000600082015250565b7f646174613a6170706c69636174696f6e2f6a736f6e3b6261736536342c000000600082015250565b7f222c2261747472696275746573223a205b207b202274726169745f747970652260008201527f3a2022466f6c6c6f77657273222c202276616c7565223a200000000000000000602082015250565b7f7d2c207d205d7d00000000000000000000000000000000000000000000000000600082015250565b7f426c6f67206e616d6520616c7265616479206578697374210000000000000000600082015250565b7f2d00000000000000000000000000000000000000000000000000000000000000600082015250565b7f222c20226465736372697074696f6e223a2022426c6f636b696679204e46542260008201527f2c2022696d616765223a20220000000000000000000000000000000000000000602082015250565b7f596f752061726520616c7265616479206120666f6c6c6f776572000000000000600082015250565b7f4552433732313a2063616c6c6572206973206e6f7420746f6b656e206f776e6560008201527f72206e6f7220617070726f766564000000000000000000000000000000000000602082015250565b61528681614a9f565b811461529157600080fd5b50565b61529d81614ab1565b81146152a857600080fd5b50565b6152b481614abd565b81146152bf57600080fd5b50565b6152cb81614b09565b81146152d657600080fd5b5056fe4142434445464748494a4b4c4d4e4f505152535455565758595a6162636465666768696a6b6c6d6e6f707172737475767778797a303132333435363738392b2fa26469706673582212201443469fc9aa3e3cda103245d126efbf19409bfec0fcd6660f7d7ebd5f360d1d64736f6c63430008010033",
  "linkReferences": {},
  "deployedLinkReferences": {}
}