{
  "_format": "hh-sol-artifact-1",
  "contractName": "Blockify",
  "sourceName": "contracts/Blockify.sol",
  "abi": [
    {
      "inputs": [],
      "stateMutability": "nonpayable",
      "type": "constructor"
    },
    {
      "anonymous": false,
      "inputs": [
        {
          "indexed": true,
          "internalType": "address",
          "name": "owner",
          "type": "address"
        },
        {
          "indexed": true,
          "internalType": "address",
          "name": "approved",
          "type": "address"
        },
        {
          "indexed": true,
          "internalType": "uint256",
          "name": "tokenId",
          "type": "uint256"
        }
      ],
      "name": "Approval",
      "type": "event"
    },
    {
      "anonymous": false,
      "inputs": [
        {
          "indexed": true,
          "internalType": "address",
          "name": "owner",
          "type": "address"
        },
        {
          "indexed": true,
          "internalType": "address",
          "name": "operator",
          "type": "address"
        },
        {
          "indexed": false,
          "internalType": "bool",
          "name": "approved",
          "type": "bool"
        }
      ],
      "name": "ApprovalForAll",
      "type": "event"
    },
    {
      "anonymous": false,
      "inputs": [
        {
          "indexed": false,
          "internalType": "uint256",
          "name": "blogId",
          "type": "uint256"
        },
        {
          "indexed": false,
          "internalType": "address",
          "name": "follower",
          "type": "address"
        }
      ],
      "name": "BlogFollowed",
      "type": "event"
    },
    {
      "anonymous": false,
      "inputs": [
        {
          "indexed": false,
          "internalType": "address",
          "name": "sender",
          "type": "address"
        },
        {
          "indexed": false,
          "internalType": "uint256",
          "name": "blogId",
          "type": "uint256"
        },
        {
          "components": [
            {
              "internalType": "uint256",
              "name": "blogId",
              "type": "uint256"
            },
            {
              "internalType": "string",
              "name": "blogDid",
              "type": "string"
            },
            {
              "internalType": "string",
              "name": "blogname",
              "type": "string"
            },
            {
              "internalType": "string",
              "name": "coverPicture",
              "type": "string"
            },
            {
              "internalType": "uint256",
              "name": "followers",
              "type": "uint256"
            }
          ],
          "indexed": false,
          "internalType": "struct DataTypes.Blog",
          "name": "blogData",
          "type": "tuple"
        }
      ],
      "name": "BlogNFTMinted",
      "type": "event"
    },
    {
      "anonymous": false,
      "inputs": [
        {
          "components": [
            {
              "internalType": "string",
              "name": "idOfPost",
              "type": "string"
            },
            {
              "internalType": "string",
              "name": "content",
              "type": "string"
            },
            {
              "internalType": "address",
              "name": "authorId",
              "type": "address"
            },
            {
              "internalType": "uint256",
              "name": "date",
              "type": "uint256"
            }
          ],
          "indexed": false,
          "internalType": "struct DataTypes.Comment",
          "name": "commentAdded",
          "type": "tuple"
        }
      ],
      "name": "CommentAdded",
      "type": "event"
    },
    {
      "anonymous": false,
      "inputs": [
        {
          "components": [
            {
              "internalType": "string",
              "name": "id",
              "type": "string"
            },
            {
              "internalType": "string",
              "name": "title",
              "type": "string"
            },
            {
              "internalType": "string",
              "name": "content",
              "type": "string"
            },
            {
              "internalType": "string",
              "name": "picture",
              "type": "string"
            },
            {
              "internalType": "string",
              "name": "video",
              "type": "string"
            },
            {
              "internalType": "string",
              "name": "username",
              "type": "string"
            },
            {
              "internalType": "uint256",
              "name": "authorId",
              "type": "uint256"
            },
            {
              "internalType": "uint256",
              "name": "date",
              "type": "uint256"
            }
          ],
          "indexed": false,
          "internalType": "struct DataTypes.Post",
          "name": "postAdded",
          "type": "tuple"
        }
      ],
      "name": "PostAdded",
      "type": "event"
    },
    {
      "anonymous": false,
      "inputs": [
        {
          "indexed": true,
          "internalType": "address",
          "name": "from",
          "type": "address"
        },
        {
          "indexed": true,
          "internalType": "address",
          "name": "to",
          "type": "address"
        },
        {
          "indexed": true,
          "internalType": "uint256",
          "name": "tokenId",
          "type": "uint256"
        }
      ],
      "name": "Transfer",
      "type": "event"
    },
    {
      "inputs": [],
      "name": "TOKEN_ADDRESS",
      "outputs": [
        {
          "internalType": "address",
          "name": "",
          "type": "address"
        }
      ],
      "stateMutability": "view",
      "type": "function"
    },
    {
      "inputs": [
        {
          "internalType": "string",
          "name": "_commentToAdd",
          "type": "string"
        },
        {
          "internalType": "string",
          "name": "_postId",
          "type": "string"
        },
        {
          "internalType": "address",
          "name": "_blogOwner",
          "type": "address"
        },
        {
          "internalType": "uint256",
          "name": "_blogsId",
          "type": "uint256"
        }
      ],
      "name": "addComment",
      "outputs": [],
      "stateMutability": "nonpayable",
      "type": "function"
    },
    {
      "inputs": [
        {
          "internalType": "address",
          "name": "to",
          "type": "address"
        },
        {
          "internalType": "uint256",
          "name": "tokenId",
          "type": "uint256"
        }
      ],
      "name": "approve",
      "outputs": [],
      "stateMutability": "nonpayable",
      "type": "function"
    },
    {
      "inputs": [
        {
          "internalType": "address",
          "name": "owner",
          "type": "address"
        }
      ],
      "name": "balanceOf",
      "outputs": [
        {
          "internalType": "uint256",
          "name": "",
          "type": "uint256"
        }
      ],
      "stateMutability": "view",
      "type": "function"
    },
    {
      "inputs": [
        {
          "internalType": "string",
          "name": "",
          "type": "string"
        },
        {
          "internalType": "uint256",
          "name": "",
          "type": "uint256"
        }
      ],
      "name": "blogComments",
      "outputs": [
        {
          "internalType": "string",
          "name": "idOfPost",
          "type": "string"
        },
        {
          "internalType": "string",
          "name": "content",
          "type": "string"
        },
        {
          "internalType": "address",
          "name": "authorId",
          "type": "address"
        },
        {
          "internalType": "uint256",
          "name": "date",
          "type": "uint256"
        }
      ],
      "stateMutability": "view",
      "type": "function"
    },
    {
      "inputs": [
        {
          "internalType": "uint256",
          "name": "",
          "type": "uint256"
        },
        {
          "internalType": "uint256",
          "name": "",
          "type": "uint256"
        }
      ],
      "name": "blogFollowers",
      "outputs": [
        {
          "internalType": "address",
          "name": "",
          "type": "address"
        }
      ],
      "stateMutability": "view",
      "type": "function"
    },
    {
      "inputs": [
        {
          "internalType": "uint256",
          "name": "",
          "type": "uint256"
        }
      ],
      "name": "blogs",
      "outputs": [
        {
          "internalType": "uint256",
          "name": "blogId",
          "type": "uint256"
        },
        {
          "internalType": "string",
          "name": "blogDid",
          "type": "string"
        },
        {
          "internalType": "string",
          "name": "blogname",
          "type": "string"
        },
        {
          "internalType": "string",
          "name": "coverPicture",
          "type": "string"
        },
        {
          "internalType": "uint256",
          "name": "followers",
          "type": "uint256"
        }
      ],
      "stateMutability": "view",
      "type": "function"
    },
    {
      "inputs": [
        {
          "internalType": "uint256",
          "name": "",
          "type": "uint256"
        }
      ],
      "name": "blogsOwners",
      "outputs": [
        {
          "internalType": "address",
          "name": "",
          "type": "address"
        }
      ],
      "stateMutability": "view",
      "type": "function"
    },
    {
      "inputs": [
        {
          "internalType": "uint256",
          "name": "_blogToCheckId",
          "type": "uint256"
        }
      ],
      "name": "checkProfileOwner",
      "outputs": [
        {
          "components": [
            {
              "internalType": "uint256",
              "name": "blogId",
              "type": "uint256"
            },
            {
              "internalType": "string",
              "name": "blogDid",
              "type": "string"
            },
            {
              "internalType": "string",
              "name": "blogname",
              "type": "string"
            },
            {
              "internalType": "string",
              "name": "coverPicture",
              "type": "string"
            },
            {
              "internalType": "uint256",
              "name": "followers",
              "type": "uint256"
            }
          ],
          "internalType": "struct DataTypes.Blog",
          "name": "",
          "type": "tuple"
        }
      ],
      "stateMutability": "view",
      "type": "function"
    },
    {
      "inputs": [
        {
          "internalType": "uint256",
          "name": "",
          "type": "uint256"
        }
      ],
      "name": "doesBlogExist",
      "outputs": [
        {
          "internalType": "bool",
          "name": "",
          "type": "bool"
        }
      ],
      "stateMutability": "view",
      "type": "function"
    },
    {
      "inputs": [
        {
          "internalType": "string",
          "name": "",
          "type": "string"
        }
      ],
      "name": "doesBlognameExist",
      "outputs": [
        {
          "internalType": "bool",
          "name": "",
          "type": "bool"
        }
      ],
      "stateMutability": "view",
      "type": "function"
    },
    {
      "inputs": [
        {
          "internalType": "uint256",
          "name": "_followedBlogId",
          "type": "uint256"
        },
        {
          "internalType": "address",
          "name": "_blogOwner",
          "type": "address"
        }
      ],
      "name": "followBlog",
      "outputs": [],
      "stateMutability": "nonpayable",
      "type": "function"
    },
    {
      "inputs": [
        {
          "internalType": "uint256",
          "name": "tokenId",
          "type": "uint256"
        }
      ],
      "name": "getApproved",
      "outputs": [
        {
          "internalType": "address",
          "name": "",
          "type": "address"
        }
      ],
      "stateMutability": "view",
      "type": "function"
    },
    {
      "inputs": [
        {
          "internalType": "uint256",
          "name": "_blogFollowersId",
          "type": "uint256"
        }
      ],
      "name": "getBlogFollowers",
      "outputs": [
        {
          "internalType": "address[]",
          "name": "",
          "type": "address[]"
        }
      ],
      "stateMutability": "view",
      "type": "function"
    },
    {
      "inputs": [
        {
          "internalType": "string",
          "name": "_postId",
          "type": "string"
        }
      ],
      "name": "getComments",
      "outputs": [
        {
          "components": [
            {
              "internalType": "string",
              "name": "idOfPost",
              "type": "string"
            },
            {
              "internalType": "string",
              "name": "content",
              "type": "string"
            },
            {
              "internalType": "address",
              "name": "authorId",
              "type": "address"
            },
            {
              "internalType": "uint256",
              "name": "date",
              "type": "uint256"
            }
          ],
          "internalType": "struct DataTypes.Comment[]",
          "name": "",
          "type": "tuple[]"
        }
      ],
      "stateMutability": "view",
      "type": "function"
    },
    {
      "inputs": [
        {
          "internalType": "address",
          "name": "owner",
          "type": "address"
        },
        {
          "internalType": "address",
          "name": "operator",
          "type": "address"
        }
      ],
      "name": "isApprovedForAll",
      "outputs": [
        {
          "internalType": "bool",
          "name": "",
          "type": "bool"
        }
      ],
      "stateMutability": "view",
      "type": "function"
    },
    {
      "inputs": [
        {
          "internalType": "string",
          "name": "",
          "type": "string"
        }
      ],
      "name": "isFollower",
      "outputs": [
        {
          "internalType": "bool",
          "name": "",
          "type": "bool"
        }
      ],
      "stateMutability": "view",
      "type": "function"
    },
    {
      "inputs": [
        {
          "internalType": "string",
          "name": "_blogname",
          "type": "string"
        },
        {
          "internalType": "string",
          "name": "_blogdid",
          "type": "string"
        },
        {
          "internalType": "string",
          "name": "_coverPicture",
          "type": "string"
        }
      ],
      "name": "mintBlogNFT",
      "outputs": [],
      "stateMutability": "nonpayable",
      "type": "function"
    },
    {
      "inputs": [],
      "name": "name",
      "outputs": [
        {
          "internalType": "string",
          "name": "",
          "type": "string"
        }
      ],
      "stateMutability": "view",
      "type": "function"
    },
    {
      "inputs": [
        {
          "internalType": "uint256",
          "name": "tokenId",
          "type": "uint256"
        }
      ],
      "name": "ownerOf",
      "outputs": [
        {
          "internalType": "address",
          "name": "",
          "type": "address"
        }
      ],
      "stateMutability": "view",
      "type": "function"
    },
    {
      "inputs": [
        {
          "internalType": "string",
          "name": "",
          "type": "string"
        },
        {
          "internalType": "uint256",
          "name": "",
          "type": "uint256"
        }
      ],
      "name": "postComments",
      "outputs": [
        {
          "internalType": "string",
          "name": "idOfPost",
          "type": "string"
        },
        {
          "internalType": "string",
          "name": "content",
          "type": "string"
        },
        {
          "internalType": "address",
          "name": "authorId",
          "type": "address"
        },
        {
          "internalType": "uint256",
          "name": "date",
          "type": "uint256"
        }
      ],
      "stateMutability": "view",
      "type": "function"
    },
    {
      "inputs": [
        {
          "internalType": "address",
          "name": "from",
          "type": "address"
        },
        {
          "internalType": "address",
          "name": "to",
          "type": "address"
        },
        {
          "internalType": "uint256",
          "name": "tokenId",
          "type": "uint256"
        }
      ],
      "name": "safeTransferFrom",
      "outputs": [],
      "stateMutability": "nonpayable",
      "type": "function"
    },
    {
      "inputs": [
        {
          "internalType": "address",
          "name": "from",
          "type": "address"
        },
        {
          "internalType": "address",
          "name": "to",
          "type": "address"
        },
        {
          "internalType": "uint256",
          "name": "tokenId",
          "type": "uint256"
        },
        {
          "internalType": "bytes",
          "name": "data",
          "type": "bytes"
        }
      ],
      "name": "safeTransferFrom",
      "outputs": [],
      "stateMutability": "nonpayable",
      "type": "function"
    },
    {
      "inputs": [
        {
          "internalType": "address",
          "name": "operator",
          "type": "address"
        },
        {
          "internalType": "bool",
          "name": "approved",
          "type": "bool"
        }
      ],
      "name": "setApprovalForAll",
      "outputs": [],
      "stateMutability": "nonpayable",
      "type": "function"
    },
    {
      "inputs": [
        {
          "internalType": "bytes4",
          "name": "interfaceId",
          "type": "bytes4"
        }
      ],
      "name": "supportsInterface",
      "outputs": [
        {
          "internalType": "bool",
          "name": "",
          "type": "bool"
        }
      ],
      "stateMutability": "view",
      "type": "function"
    },
    {
      "inputs": [],
      "name": "symbol",
      "outputs": [
        {
          "internalType": "string",
          "name": "",
          "type": "string"
        }
      ],
      "stateMutability": "view",
      "type": "function"
    },
    {
      "inputs": [
        {
          "internalType": "uint256",
          "name": "_tokenId",
          "type": "uint256"
        }
      ],
      "name": "tokenURI",
      "outputs": [
        {
          "internalType": "string",
          "name": "",
          "type": "string"
        }
      ],
      "stateMutability": "view",
      "type": "function"
    },
    {
      "inputs": [
        {
          "internalType": "address",
          "name": "from",
          "type": "address"
        },
        {
          "internalType": "address",
          "name": "to",
          "type": "address"
        },
        {
          "internalType": "uint256",
          "name": "tokenId",
          "type": "uint256"
        }
      ],
      "name": "transferFrom",
      "outputs": [],
      "stateMutability": "nonpayable",
      "type": "function"
    }
  ],
  "bytecode": "0x6080604052739460802a8a65b3de37f0d93539ffdb57bbf52bf2600660006101000a81548173ffffffffffffffffffffffffffffffffffffffff021916908373ffffffffffffffffffffffffffffffffffffffff1602179055503480156200006657600080fd5b506040518060400160405280600881526020017f426c6f636b6966790000000000000000000000000000000000000000000000008152506040518060400160405280600481526020017f42474659000000000000000000000000000000000000000000000000000000008152508160009080519060200190620000eb9291906200010d565b508060019080519060200190620001049291906200010d565b50505062000222565b8280546200011b90620001bd565b90600052602060002090601f0160209004810192826200013f57600085556200018b565b82601f106200015a57805160ff19168380011785556200018b565b828001600101855582156200018b579182015b828111156200018a5782518255916020019190600101906200016d565b5b5090506200019a91906200019e565b5090565b5b80821115620001b95760008160009055506001016200019f565b5090565b60006002820490506001821680620001d657607f821691505b60208210811415620001ed57620001ec620001f3565b5b50919050565b7f4e487b7100000000000000000000000000000000000000000000000000000000600052602260045260246000fd5b6151db80620002326000396000f3fe608060405234801561001057600080fd5b50600436106101c45760003560e01c806373035113116100f9578063ba8d552711610097578063df6ac8d011610071578063df6ac8d01461058b578063e985e9c5146105a7578063fb3d9460146105d7578063ffde2b471461060a576101c4565b8063ba8d5527146104fb578063c09415571461052b578063c87b56dd1461055b576101c4565b806395d89b41116100d357806395d89b4114610475578063a22cb46514610493578063a90de303146104af578063b88d4fde146104df576101c4565b806373035113146103f557806380f052d8146104255780638b6827e214610459576101c4565b806319fd821e11610166578063527d3f3f11610140578063527d3f3f146103495780636352211e1461036557806370a082311461039557806370c63fcc146103c5576101c4565b806319fd821e146102e157806323b872dd1461031157806342842e0e1461032d576101c4565b8063081812fc116101a2578063081812fc14610247578063095ea7b3146102775780630bdf530014610293578063137e47f1146102b1576101c4565b806301ffc9a7146101c9578063021e829c146101f957806306fdde0314610229575b600080fd5b6101e360048036038101906101de91906137c2565b61063d565b6040516101f09190614329565b60405180910390f35b610213600480360381019061020e9190613814565b61071f565b6040516102209190614329565b60405180910390f35b610231610755565b60405161023e9190614344565b60405180910390f35b610261600480360381019061025c91906139d3565b6107e7565b60405161026e9190614217565b60405180910390f35b610291600480360381019061028c9190613786565b61082d565b005b61029b610945565b6040516102a89190614217565b60405180910390f35b6102cb60048036038101906102c691906139d3565b61095d565b6040516102d891906145d9565b60405180910390f35b6102fb60048036038101906102f691906139d3565b610bfb565b6040516103089190614217565b60405180910390f35b61032b60048036038101906103269190613680565b610c2e565b005b61034760048036038101906103429190613680565b610c8e565b005b610363600480360381019061035e91906139fc565b610cae565b005b61037f600480360381019061037a91906139d3565b610f48565b60405161038c9190614217565b60405180910390f35b6103af60048036038101906103aa919061361b565b610ffa565b6040516103bc919061461d565b60405180910390f35b6103df60048036038101906103da9190613814565b6110b2565b6040516103ec9190614307565b60405180910390f35b61040f600480360381019061040a91906139d3565b6112b3565b60405161041c9190614329565b60405180910390f35b61043f600480360381019061043a91906139d3565b6112d3565b604051610450959493929190614661565b60405180910390f35b610473600480360381019061046e9190613855565b6114a1565b005b61047d61173e565b60405161048a9190614344565b60405180910390f35b6104ad60048036038101906104a8919061374a565b6117d0565b005b6104c960048036038101906104c49190613814565b6117e6565b6040516104d69190614329565b60405180910390f35b6104f960048036038101906104f491906136cf565b61181c565b005b610515600480360381019061051091906139d3565b61187e565b60405161052291906142e5565b60405180910390f35b61054560048036038101906105409190613a38565b611981565b6040516105529190614217565b60405180910390f35b610575600480360381019061057091906139d3565b6119cf565b6040516105829190614344565b60405180910390f35b6105a560048036038101906105a091906138e8565b611c58565b005b6105c160048036038101906105bc9190613644565b611f0f565b6040516105ce9190614329565b60405180910390f35b6105f160048036038101906105ec919061397f565b611fa3565b6040516106019493929190614366565b60405180910390f35b610624600480360381019061061f919061397f565b612136565b6040516106349493929190614366565b60405180910390f35b60007f80ac58cd000000000000000000000000000000000000000000000000000000007bffffffffffffffffffffffffffffffffffffffffffffffffffffffff1916827bffffffffffffffffffffffffffffffffffffffffffffffffffffffff1916148061070857507f5b5e139f000000000000000000000000000000000000000000000000000000007bffffffffffffffffffffffffffffffffffffffffffffffffffffffff1916827bffffffffffffffffffffffffffffffffffffffffffffffffffffffff1916145b806107185750610717826122c9565b5b9050919050565b600c818051602081018201805184825260208301602085012081835280955050505050506000915054906101000a900460ff1681565b60606000805461076490614a0b565b80601f016020809104026020016040519081016040528092919081815260200182805461079090614a0b565b80156107dd5780601f106107b2576101008083540402835291602001916107dd565b820191906000526020600020905b8154815290600101906020018083116107c057829003601f168201915b5050505050905090565b60006107f282612333565b6004600083815260200190815260200160002060009054906101000a900473ffffffffffffffffffffffffffffffffffffffff169050919050565b600061083882610f48565b90508073ffffffffffffffffffffffffffffffffffffffff168373ffffffffffffffffffffffffffffffffffffffff1614156108a9576040517f08c379a00000000000000000000000000000000000000000000000000000000081526004016108a090614539565b60405180910390fd5b8073ffffffffffffffffffffffffffffffffffffffff166108c861237e565b73ffffffffffffffffffffffffffffffffffffffff1614806108f757506108f6816108f161237e565b611f0f565b5b610936576040517f08c379a000000000000000000000000000000000000000000000000000000000815260040161092d906144b9565b60405180910390fd5b6109408383612386565b505050565b739460802a8a65b3de37f0d93539ffdb57bbf52bf281565b610965613410565b3373ffffffffffffffffffffffffffffffffffffffff16600a600084815260200190815260200160002060009054906101000a900473ffffffffffffffffffffffffffffffffffffffff1673ffffffffffffffffffffffffffffffffffffffff161415610bbb57600860008381526020019081526020016000206040518060a001604052908160008201548152602001600182018054610a0490614a0b565b80601f0160208091040260200160405190810160405280929190818152602001828054610a3090614a0b565b8015610a7d5780601f10610a5257610100808354040283529160200191610a7d565b820191906000526020600020905b815481529060010190602001808311610a6057829003601f168201915b50505050508152602001600282018054610a9690614a0b565b80601f0160208091040260200160405190810160405280929190818152602001828054610ac290614a0b565b8015610b0f5780601f10610ae457610100808354040283529160200191610b0f565b820191906000526020600020905b815481529060010190602001808311610af257829003601f168201915b50505050508152602001600382018054610b2890614a0b565b80601f0160208091040260200160405190810160405280929190818152602001828054610b5490614a0b565b8015610ba15780601f10610b7657610100808354040283529160200191610ba1565b820191906000526020600020905b815481529060010190602001808311610b8457829003601f168201915b505050505081526020016004820154815250509050610bf6565b6040517f08c379a0000000000000000000000000000000000000000000000000000000008152600401610bed90614559565b60405180910390fd5b919050565b600a6020528060005260406000206000915054906101000a900473ffffffffffffffffffffffffffffffffffffffff1681565b610c3f610c3961237e565b8261243f565b610c7e576040517f08c379a0000000000000000000000000000000000000000000000000000000008152600401610c75906145b9565b60405180910390fd5b610c898383836124d4565b505050565b610ca98383836040518060200160405280600081525061181c565b505050565b81600e600082815260200190815260200160002060009054906101000a900460ff16610d0f576040517f08c379a0000000000000000000000000000000000000000000000000000000008152600401610d06906143d9565b60405180910390fd5b600660009054906101000a900473ffffffffffffffffffffffffffffffffffffffff1673ffffffffffffffffffffffffffffffffffffffff1663d3e1cd5933846040518363ffffffff1660e01b8152600401610d6c929190614232565b600060405180830381600087803b158015610d8657600080fd5b505af1158015610d9a573d6000803e3d6000fd5b505050506000610dc13373ffffffffffffffffffffffffffffffffffffffff16601461273b565b9050600081610dcf86612a35565b604051602001610de0929190614151565b6040516020818303038152906040529050600c81604051610e01919061413a565b908152602001604051809103902060009054906101000a900460ff1615610e5d576040517f08c379a0000000000000000000000000000000000000000000000000000000008152600401610e5490614599565b60405180910390fd5b6001600c82604051610e6f919061413a565b908152602001604051809103902060006101000a81548160ff021916908315150217905550600b6000868152602001908152602001600020339080600181540180825580915050600190039060005260206000200160009091909190916101000a81548173ffffffffffffffffffffffffffffffffffffffff021916908373ffffffffffffffffffffffffffffffffffffffff1602179055507f90fd9fb6b85311f59a02cc8d0101bff2d53f99ccf49df9bef468b58dd7d004598533604051610f39929190614638565b60405180910390a15050505050565b6000806002600084815260200190815260200160002060009054906101000a900473ffffffffffffffffffffffffffffffffffffffff169050600073ffffffffffffffffffffffffffffffffffffffff168173ffffffffffffffffffffffffffffffffffffffff161415610ff1576040517f08c379a0000000000000000000000000000000000000000000000000000000008152600401610fe890614519565b60405180910390fd5b80915050919050565b60008073ffffffffffffffffffffffffffffffffffffffff168273ffffffffffffffffffffffffffffffffffffffff16141561106b576040517f08c379a000000000000000000000000000000000000000000000000000000000815260040161106290614499565b60405180910390fd5b600360008373ffffffffffffffffffffffffffffffffffffffff1673ffffffffffffffffffffffffffffffffffffffff168152602001908152602001600020549050919050565b60606009826040516110c4919061413a565b9081526020016040518091039020805480602002602001604051908101604052809291908181526020016000905b828210156112a8578382906000526020600020906004020160405180608001604052908160008201805461112590614a0b565b80601f016020809104026020016040519081016040528092919081815260200182805461115190614a0b565b801561119e5780601f106111735761010080835404028352916020019161119e565b820191906000526020600020905b81548152906001019060200180831161118157829003601f168201915b505050505081526020016001820180546111b790614a0b565b80601f01602080910402602001604051908101604052809291908181526020018280546111e390614a0b565b80156112305780601f1061120557610100808354040283529160200191611230565b820191906000526020600020905b81548152906001019060200180831161121357829003601f168201915b505050505081526020016002820160009054906101000a900473ffffffffffffffffffffffffffffffffffffffff1673ffffffffffffffffffffffffffffffffffffffff1673ffffffffffffffffffffffffffffffffffffffff168152602001600382015481525050815260200190600101906110f2565b505050509050919050565b600e6020528060005260406000206000915054906101000a900460ff1681565b60086020528060005260406000206000915090508060000154908060010180546112fc90614a0b565b80601f016020809104026020016040519081016040528092919081815260200182805461132890614a0b565b80156113755780601f1061134a57610100808354040283529160200191611375565b820191906000526020600020905b81548152906001019060200180831161135857829003601f168201915b50505050509080600201805461138a90614a0b565b80601f01602080910402602001604051908101604052809291908181526020018280546113b690614a0b565b80156114035780601f106113d857610100808354040283529160200191611403565b820191906000526020600020905b8154815290600101906020018083116113e657829003601f168201915b50505050509080600301805461141890614a0b565b80601f016020809104026020016040519081016040528092919081815260200182805461144490614a0b565b80156114915780601f1061146657610100808354040283529160200191611491565b820191906000526020600020905b81548152906001019060200180831161147457829003601f168201915b5050505050908060040154905085565b60006114c43373ffffffffffffffffffffffffffffffffffffffff16601461273b565b90506000816114d284612a35565b6040516020016114e3929190614151565b6040516020818303038152906040529050600c81604051611504919061413a565b908152602001604051809103902060009054906101000a900460ff1661155f576040517f08c379a0000000000000000000000000000000000000000000000000000000008152600401611556906144f9565b60405180910390fd5b600660009054906101000a900473ffffffffffffffffffffffffffffffffffffffff1673ffffffffffffffffffffffffffffffffffffffff16634bac397f33866040518363ffffffff1660e01b81526004016115bc929190614232565b600060405180830381600087803b1580156115d657600080fd5b505af11580156115ea573d6000803e3d6000fd5b50505050600060405180608001604052808781526020018881526020013373ffffffffffffffffffffffffffffffffffffffff168152602001428152509050600986604051611639919061413a565b9081526020016040518091039020819080600181540180825580915050600190039060005260206000209060040201600090919091909150600082015181600001908051906020019061168d92919061343f565b5060208201518160010190805190602001906116aa92919061343f565b5060408201518160020160006101000a81548173ffffffffffffffffffffffffffffffffffffffff021916908373ffffffffffffffffffffffffffffffffffffffff1602179055506060820151816003015550507f1889705fbc83fba5b0243530ae8d6ee1695b4a894d6f5356cfecbb366c7d72178160405161172d91906145fb565b60405180910390a150505050505050565b60606001805461174d90614a0b565b80601f016020809104026020016040519081016040528092919081815260200182805461177990614a0b565b80156117c65780601f1061179b576101008083540402835291602001916117c6565b820191906000526020600020905b8154815290600101906020018083116117a957829003601f168201915b5050505050905090565b6117e26117db61237e565b8383612be2565b5050565b600f818051602081018201805184825260208301602085012081835280955050505050506000915054906101000a900460ff1681565b61182d61182761237e565b8361243f565b61186c576040517f08c379a0000000000000000000000000000000000000000000000000000000008152600401611863906145b9565b60405180910390fd5b61187884848484612d4f565b50505050565b606081600e600082815260200190815260200160002060009054906101000a900460ff166118e1576040517f08c379a00000000000000000000000000000000000000000000000000000000081526004016118d8906143d9565b60405180910390fd5b600b600084815260200190815260200160002080548060200260200160405190810160405280929190818152602001828054801561197457602002820191906000526020600020905b8160009054906101000a900473ffffffffffffffffffffffffffffffffffffffff1673ffffffffffffffffffffffffffffffffffffffff168152602001906001019080831161192a575b5050505050915050919050565b600b602052816000526040600020818154811061199d57600080fd5b906000526020600020016000915091509054906101000a900473ffffffffffffffffffffffffffffffffffffffff1681565b60606000600860008481526020019081526020016000206040518060a001604052908160008201548152602001600182018054611a0b90614a0b565b80601f0160208091040260200160405190810160405280929190818152602001828054611a3790614a0b565b8015611a845780601f10611a5957610100808354040283529160200191611a84565b820191906000526020600020905b815481529060010190602001808311611a6757829003601f168201915b50505050508152602001600282018054611a9d90614a0b565b80601f0160208091040260200160405190810160405280929190818152602001828054611ac990614a0b565b8015611b165780601f10611aeb57610100808354040283529160200191611b16565b820191906000526020600020905b815481529060010190602001808311611af957829003601f168201915b50505050508152602001600382018054611b2f90614a0b565b80601f0160208091040260200160405190810160405280929190818152602001828054611b5b90614a0b565b8015611ba85780601f10611b7d57610100808354040283529160200191611ba8565b820191906000526020600020905b815481529060010190602001808311611b8b57829003601f168201915b5050505050815260200160048201548152505090506000816060015190506000611be7600b600087815260200190815260200160002080549050612a35565b90506000611c258460400151611bfc88612a35565b8585604051602001611c119493929190614180565b604051602081830303815290604052612dab565b9050600081604051602001611c3a91906141f5565b60405160208183030381529060405290508095505050505050919050565b82600f81604051611c69919061413a565b908152602001604051809103902060009054906101000a900460ff1615611cc5576040517f08c379a0000000000000000000000000000000000000000000000000000000008152600401611cbc90614579565b60405180910390fd5b600660009054906101000a900473ffffffffffffffffffffffffffffffffffffffff1673ffffffffffffffffffffffffffffffffffffffff166386ff64e56040518163ffffffff1660e01b8152600401600060405180830381600087803b158015611d2f57600080fd5b505af1158015611d43573d6000803e3d6000fd5b505050506000611d536007612f69565b9050611d5f3382612f77565b60006040518060a00160405280838152602001868152602001878152602001858152602001600081525090508060086000848152602001908152602001600020600082015181600001556020820151816001019080519060200190611dc592919061343f565b506040820151816002019080519060200190611de292919061343f565b506060820151816003019080519060200190611dff92919061343f565b506080820151816004015590505033600a600084815260200190815260200160002060006101000a81548173ffffffffffffffffffffffffffffffffffffffff021916908373ffffffffffffffffffffffffffffffffffffffff1602179055506001600e600084815260200190815260200160002060006101000a81548160ff0219169083151502179055506001600f87604051611e9d919061413a565b908152602001604051809103902060006101000a81548160ff021916908315150217905550611ecc6007612f95565b7f5ab88be422f90ac92b9a7f53df3b8704dfcb0ca7ec930176b12af0aa9cf4b60c338383604051611eff939291906142a7565b60405180910390a1505050505050565b6000600560008473ffffffffffffffffffffffffffffffffffffffff1673ffffffffffffffffffffffffffffffffffffffff16815260200190815260200160002060008373ffffffffffffffffffffffffffffffffffffffff1673ffffffffffffffffffffffffffffffffffffffff16815260200190815260200160002060009054906101000a900460ff16905092915050565b600d828051602081018201805184825260208301602085012081835280955050505050508181548110611fd557600080fd5b906000526020600020906004020160009150915050806000018054611ff990614a0b565b80601f016020809104026020016040519081016040528092919081815260200182805461202590614a0b565b80156120725780601f1061204757610100808354040283529160200191612072565b820191906000526020600020905b81548152906001019060200180831161205557829003601f168201915b50505050509080600101805461208790614a0b565b80601f01602080910402602001604051908101604052809291908181526020018280546120b390614a0b565b80156121005780601f106120d557610100808354040283529160200191612100565b820191906000526020600020905b8154815290600101906020018083116120e357829003601f168201915b5050505050908060020160009054906101000a900473ffffffffffffffffffffffffffffffffffffffff16908060030154905084565b600982805160208101820180518482526020830160208501208183528095505050505050818154811061216857600080fd5b90600052602060002090600402016000915091505080600001805461218c90614a0b565b80601f01602080910402602001604051908101604052809291908181526020018280546121b890614a0b565b80156122055780601f106121da57610100808354040283529160200191612205565b820191906000526020600020905b8154815290600101906020018083116121e857829003601f168201915b50505050509080600101805461221a90614a0b565b80601f016020809104026020016040519081016040528092919081815260200182805461224690614a0b565b80156122935780601f1061226857610100808354040283529160200191612293565b820191906000526020600020905b81548152906001019060200180831161227657829003601f168201915b5050505050908060020160009054906101000a900473ffffffffffffffffffffffffffffffffffffffff16908060030154905084565b60007f01ffc9a7000000000000000000000000000000000000000000000000000000007bffffffffffffffffffffffffffffffffffffffffffffffffffffffff1916827bffffffffffffffffffffffffffffffffffffffffffffffffffffffff1916149050919050565b61233c81612fab565b61237b576040517f08c379a000000000000000000000000000000000000000000000000000000000815260040161237290614519565b60405180910390fd5b50565b600033905090565b816004600083815260200190815260200160002060006101000a81548173ffffffffffffffffffffffffffffffffffffffff021916908373ffffffffffffffffffffffffffffffffffffffff160217905550808273ffffffffffffffffffffffffffffffffffffffff166123f983610f48565b73ffffffffffffffffffffffffffffffffffffffff167f8c5be1e5ebec7d5bd14f71427d1e84f3dd0314c0f7b2291e5b200ac8c7c3b92560405160405180910390a45050565b60008061244b83610f48565b90508073ffffffffffffffffffffffffffffffffffffffff168473ffffffffffffffffffffffffffffffffffffffff16148061248d575061248c8185611f0f565b5b806124cb57508373ffffffffffffffffffffffffffffffffffffffff166124b3846107e7565b73ffffffffffffffffffffffffffffffffffffffff16145b91505092915050565b8273ffffffffffffffffffffffffffffffffffffffff166124f482610f48565b73ffffffffffffffffffffffffffffffffffffffff161461254a576040517f08c379a000000000000000000000000000000000000000000000000000000000815260040161254190614419565b60405180910390fd5b600073ffffffffffffffffffffffffffffffffffffffff168273ffffffffffffffffffffffffffffffffffffffff1614156125ba576040517f08c379a00000000000000000000000000000000000000000000000000000000081526004016125b190614459565b60405180910390fd5b6125c5838383613017565b6125d0600082612386565b6001600360008573ffffffffffffffffffffffffffffffffffffffff1673ffffffffffffffffffffffffffffffffffffffff168152602001908152602001600020600082825461262091906148f7565b925050819055506001600360008473ffffffffffffffffffffffffffffffffffffffff1673ffffffffffffffffffffffffffffffffffffffff16815260200190815260200160002060008282546126779190614816565b92505081905550816002600083815260200190815260200160002060006101000a81548173ffffffffffffffffffffffffffffffffffffffff021916908373ffffffffffffffffffffffffffffffffffffffff160217905550808273ffffffffffffffffffffffffffffffffffffffff168473ffffffffffffffffffffffffffffffffffffffff167fddf252ad1be2c89b69c2b068fc378daa952ba7f163c4a11628f55a4df523b3ef60405160405180910390a461273683838361301c565b505050565b60606000600283600261274e919061489d565b6127589190614816565b67ffffffffffffffff811115612797577f4e487b7100000000000000000000000000000000000000000000000000000000600052604160045260246000fd5b6040519080825280601f01601f1916602001820160405280156127c95781602001600182028036833780820191505090505b5090507f300000000000000000000000000000000000000000000000000000000000000081600081518110612827577f4e487b7100000000000000000000000000000000000000000000000000000000600052603260045260246000fd5b60200101907effffffffffffffffffffffffffffffffffffffffffffffffffffffffffffff1916908160001a9053507f7800000000000000000000000000000000000000000000000000000000000000816001815181106128b1577f4e487b7100000000000000000000000000000000000000000000000000000000600052603260045260246000fd5b60200101907effffffffffffffffffffffffffffffffffffffffffffffffffffffffffffff1916908160001a905350600060018460026128f1919061489d565b6128fb9190614816565b90505b60018111156129e7577f3031323334353637383961626364656600000000000000000000000000000000600f861660108110612963577f4e487b7100000000000000000000000000000000000000000000000000000000600052603260045260246000fd5b1a60f81b8282815181106129a0577f4e487b7100000000000000000000000000000000000000000000000000000000600052603260045260246000fd5b60200101907effffffffffffffffffffffffffffffffffffffffffffffffffffffffffffff1916908160001a905350600485901c9450806129e0906149e1565b90506128fe565b5060008414612a2b576040517f08c379a0000000000000000000000000000000000000000000000000000000008152600401612a22906143b9565b60405180910390fd5b8091505092915050565b60606000821415612a7d576040518060400160405280600181526020017f30000000000000000000000000000000000000000000000000000000000000008152509050612bdd565b600082905060005b60008214612aaf578080612a9890614a6e565b915050600a82612aa8919061486c565b9150612a85565b60008167ffffffffffffffff811115612af1577f4e487b7100000000000000000000000000000000000000000000000000000000600052604160045260246000fd5b6040519080825280601f01601f191660200182016040528015612b235781602001600182028036833780820191505090505b5090505b60008514612bd657600182612b3c91906148f7565b9150600a85612b4b9190614ab7565b6030612b579190614816565b60f81b818381518110612b93577f4e487b7100000000000000000000000000000000000000000000000000000000600052603260045260246000fd5b60200101907effffffffffffffffffffffffffffffffffffffffffffffffffffffffffffff1916908160001a905350600a85612bcf919061486c565b9450612b27565b8093505050505b919050565b8173ffffffffffffffffffffffffffffffffffffffff168373ffffffffffffffffffffffffffffffffffffffff161415612c51576040517f08c379a0000000000000000000000000000000000000000000000000000000008152600401612c4890614479565b60405180910390fd5b80600560008573ffffffffffffffffffffffffffffffffffffffff1673ffffffffffffffffffffffffffffffffffffffff16815260200190815260200160002060008473ffffffffffffffffffffffffffffffffffffffff1673ffffffffffffffffffffffffffffffffffffffff16815260200190815260200160002060006101000a81548160ff0219169083151502179055508173ffffffffffffffffffffffffffffffffffffffff168373ffffffffffffffffffffffffffffffffffffffff167f17307eab39ab6107e8899845ad3d59bd9653f200f220920489ca2b5937696c3183604051612d429190614329565b60405180910390a3505050565b612d5a8484846124d4565b612d6684848484613021565b612da5576040517f08c379a0000000000000000000000000000000000000000000000000000000008152600401612d9c906143f9565b60405180910390fd5b50505050565b60606000825190506000811415612dd45760405180602001604052806000815250915050612f64565b60006003600283612de59190614816565b612def919061486c565b6004612dfb919061489d565b90506000602082612e0c9190614816565b67ffffffffffffffff811115612e4b577f4e487b7100000000000000000000000000000000000000000000000000000000600052604160045260246000fd5b6040519080825280601f01601f191660200182016040528015612e7d5781602001600182028036833780820191505090505b5090506000604051806060016040528060408152602001615166604091399050600181016020830160005b86811015612f215760038101905062ffffff818a015116603f8160121c168401518060081b905060ff603f83600c1c1686015116810190508060081b905060ff603f8360061c1686015116810190508060081b905060ff603f831686015116810190508060e01b90508084526004840193505050612ea8565b506003860660018114612f3b5760028114612f4b57612f56565b613d3d60f01b6002830352612f56565b603d60f81b60018303525b508484525050819450505050505b919050565b600081600001549050919050565b612f918282604051806020016040528060008152506131b8565b5050565b6001816000016000828254019250508190555050565b60008073ffffffffffffffffffffffffffffffffffffffff166002600084815260200190815260200160002060009054906101000a900473ffffffffffffffffffffffffffffffffffffffff1673ffffffffffffffffffffffffffffffffffffffff1614159050919050565b505050565b505050565b60006130428473ffffffffffffffffffffffffffffffffffffffff16613213565b156131ab578373ffffffffffffffffffffffffffffffffffffffff1663150b7a0261306b61237e565b8786866040518563ffffffff1660e01b815260040161308d949392919061425b565b602060405180830381600087803b1580156130a757600080fd5b505af19250505080156130d857506040513d601f19601f820116820180604052508101906130d591906137eb565b60015b61315b573d8060008114613108576040519150601f19603f3d011682016040523d82523d6000602084013e61310d565b606091505b50600081511415613153576040517f08c379a000000000000000000000000000000000000000000000000000000000815260040161314a906143f9565b60405180910390fd5b805181602001fd5b63150b7a0260e01b7bffffffffffffffffffffffffffffffffffffffffffffffffffffffff1916817bffffffffffffffffffffffffffffffffffffffffffffffffffffffff1916149150506131b0565b600190505b949350505050565b6131c28383613236565b6131cf6000848484613021565b61320e576040517f08c379a0000000000000000000000000000000000000000000000000000000008152600401613205906143f9565b60405180910390fd5b505050565b6000808273ffffffffffffffffffffffffffffffffffffffff163b119050919050565b600073ffffffffffffffffffffffffffffffffffffffff168273ffffffffffffffffffffffffffffffffffffffff1614156132a6576040517f08c379a000000000000000000000000000000000000000000000000000000000815260040161329d906144d9565b60405180910390fd5b6132af81612fab565b156132ef576040517f08c379a00000000000000000000000000000000000000000000000000000000081526004016132e690614439565b60405180910390fd5b6132fb60008383613017565b6001600360008473ffffffffffffffffffffffffffffffffffffffff1673ffffffffffffffffffffffffffffffffffffffff168152602001908152602001600020600082825461334b9190614816565b92505081905550816002600083815260200190815260200160002060006101000a81548173ffffffffffffffffffffffffffffffffffffffff021916908373ffffffffffffffffffffffffffffffffffffffff160217905550808273ffffffffffffffffffffffffffffffffffffffff16600073ffffffffffffffffffffffffffffffffffffffff167fddf252ad1be2c89b69c2b068fc378daa952ba7f163c4a11628f55a4df523b3ef60405160405180910390a461340c6000838361301c565b5050565b6040518060a0016040528060008152602001606081526020016060815260200160608152602001600081525090565b82805461344b90614a0b565b90600052602060002090601f01602090048101928261346d57600085556134b4565b82601f1061348657805160ff19168380011785556134b4565b828001600101855582156134b4579182015b828111156134b3578251825591602001919060010190613498565b5b5090506134c191906134c5565b5090565b5b808211156134de5760008160009055506001016134c6565b5090565b60006134f56134f0846146ee565b6146c9565b90508281526020810184848401111561350d57600080fd5b61351884828561499f565b509392505050565b600061353361352e8461471f565b6146c9565b90508281526020810184848401111561354b57600080fd5b61355684828561499f565b509392505050565b60008135905061356d81615109565b92915050565b60008135905061358281615120565b92915050565b60008135905061359781615137565b92915050565b6000815190506135ac81615137565b92915050565b600082601f8301126135c357600080fd5b81356135d38482602086016134e2565b91505092915050565b600082601f8301126135ed57600080fd5b81356135fd848260208601613520565b91505092915050565b6000813590506136158161514e565b92915050565b60006020828403121561362d57600080fd5b600061363b8482850161355e565b91505092915050565b6000806040838503121561365757600080fd5b60006136658582860161355e565b92505060206136768582860161355e565b9150509250929050565b60008060006060848603121561369557600080fd5b60006136a38682870161355e565b93505060206136b48682870161355e565b92505060406136c586828701613606565b9150509250925092565b600080600080608085870312156136e557600080fd5b60006136f38782880161355e565b94505060206137048782880161355e565b935050604061371587828801613606565b925050606085013567ffffffffffffffff81111561373257600080fd5b61373e878288016135b2565b91505092959194509250565b6000806040838503121561375d57600080fd5b600061376b8582860161355e565b925050602061377c85828601613573565b9150509250929050565b6000806040838503121561379957600080fd5b60006137a78582860161355e565b92505060206137b885828601613606565b9150509250929050565b6000602082840312156137d457600080fd5b60006137e284828501613588565b91505092915050565b6000602082840312156137fd57600080fd5b600061380b8482850161359d565b91505092915050565b60006020828403121561382657600080fd5b600082013567ffffffffffffffff81111561384057600080fd5b61384c848285016135dc565b91505092915050565b6000806000806080858703121561386b57600080fd5b600085013567ffffffffffffffff81111561388557600080fd5b613891878288016135dc565b945050602085013567ffffffffffffffff8111156138ae57600080fd5b6138ba878288016135dc565b93505060406138cb8782880161355e565b92505060606138dc87828801613606565b91505092959194509250565b6000806000606084860312156138fd57600080fd5b600084013567ffffffffffffffff81111561391757600080fd5b613923868287016135dc565b935050602084013567ffffffffffffffff81111561394057600080fd5b61394c868287016135dc565b925050604084013567ffffffffffffffff81111561396957600080fd5b613975868287016135dc565b9150509250925092565b6000806040838503121561399257600080fd5b600083013567ffffffffffffffff8111156139ac57600080fd5b6139b8858286016135dc565b92505060206139c985828601613606565b9150509250929050565b6000602082840312156139e557600080fd5b60006139f384828501613606565b91505092915050565b60008060408385031215613a0f57600080fd5b6000613a1d85828601613606565b9250506020613a2e8582860161355e565b9150509250929050565b60008060408385031215613a4b57600080fd5b6000613a5985828601613606565b9250506020613a6a85828601613606565b9150509250929050565b6000613a808383613aa0565b60208301905092915050565b6000613a988383614048565b905092915050565b613aa98161492b565b82525050565b613ab88161492b565b82525050565b6000613ac982614770565b613ad381856147b6565b9350613ade83614750565b8060005b83811015613b0f578151613af68882613a74565b9750613b018361479c565b925050600181019050613ae2565b5085935050505092915050565b6000613b278261477b565b613b3181856147c7565b935083602082028501613b4385614760565b8060005b85811015613b7f5784840389528151613b608582613a8c565b9450613b6b836147a9565b925060208a01995050600181019050613b47565b50829750879550505050505092915050565b613b9a8161493d565b82525050565b6000613bab82614786565b613bb581856147d8565b9350613bc58185602086016149ae565b613bce81614ba4565b840191505092915050565b6000613be482614791565b613bee81856147e9565b9350613bfe8185602086016149ae565b613c0781614ba4565b840191505092915050565b6000613c1d82614791565b613c2781856147fa565b9350613c378185602086016149ae565b613c4081614ba4565b840191505092915050565b6000613c5682614791565b613c60818561480b565b9350613c708185602086016149ae565b80840191505092915050565b6000613c896020836147fa565b9150613c9482614bb5565b602082019050919050565b6000613cac6012836147fa565b9150613cb782614bde565b602082019050919050565b6000613ccf6032836147fa565b9150613cda82614c07565b604082019050919050565b6000613cf26025836147fa565b9150613cfd82614c56565b604082019050919050565b6000613d15601c836147fa565b9150613d2082614ca5565b602082019050919050565b6000613d386024836147fa565b9150613d4382614cce565b604082019050919050565b6000613d5b6019836147fa565b9150613d6682614d1d565b602082019050919050565b6000613d7e6029836147fa565b9150613d8982614d46565b604082019050919050565b6000613da160108361480b565b9150613dac82614d95565b601082019050919050565b6000613dc4603e836147fa565b9150613dcf82614dbe565b604082019050919050565b6000613de76020836147fa565b9150613df282614e0d565b602082019050919050565b6000613e0a6022836147fa565b9150613e1582614e36565b604082019050919050565b6000613e2d6018836147fa565b9150613e3882614e85565b602082019050919050565b6000613e50600d8361480b565b9150613e5b82614eae565b600d82019050919050565b6000613e736021836147fa565b9150613e7e82614ed7565b604082019050919050565b6000613e966019836147fa565b9150613ea182614f26565b602082019050919050565b6000613eb9601d8361480b565b9150613ec482614f4f565b601d82019050919050565b6000613edc60388361480b565b9150613ee782614f78565b603882019050919050565b6000613eff60078361480b565b9150613f0a82614fc7565b600782019050919050565b6000613f226018836147fa565b9150613f2d82614ff0565b602082019050919050565b6000613f4560018361480b565b9150613f5082615019565b600182019050919050565b6000613f68602c8361480b565b9150613f7382615042565b602c82019050919050565b6000613f8b601a836147fa565b9150613f9682615091565b602082019050919050565b6000613fae602e836147fa565b9150613fb9826150ba565b604082019050919050565b600060a083016000830151613fdc600086018261411c565b5060208301518482036020860152613ff48282613bd9565b9150506040830151848203604086015261400e8282613bd9565b915050606083015184820360608601526140288282613bd9565b915050608083015161403d608086018261411c565b508091505092915050565b600060808301600083015184820360008601526140658282613bd9565b9150506020830151848203602086015261407f8282613bd9565b91505060408301516140946040860182613aa0565b5060608301516140a7606086018261411c565b508091505092915050565b600060808301600083015184820360008601526140cf8282613bd9565b915050602083015184820360208601526140e98282613bd9565b91505060408301516140fe6040860182613aa0565b506060830151614111606086018261411c565b508091505092915050565b61412581614995565b82525050565b61413481614995565b82525050565b60006141468284613c4b565b915081905092915050565b600061415d8285613c4b565b915061416882613f38565b91506141748284613c4b565b91508190509392505050565b600061418b82613d94565b91506141978287613c4b565b91506141a282613e43565b91506141ae8286613c4b565b91506141b982613f5b565b91506141c58285613c4b565b91506141d082613ecf565b91506141dc8284613c4b565b91506141e782613ef2565b915081905095945050505050565b600061420082613eac565b915061420c8284613c4b565b915081905092915050565b600060208201905061422c6000830184613aaf565b92915050565b60006040820190506142476000830185613aaf565b6142546020830184613aaf565b9392505050565b60006080820190506142706000830187613aaf565b61427d6020830186613aaf565b61428a604083018561412b565b818103606083015261429c8184613ba0565b905095945050505050565b60006060820190506142bc6000830186613aaf565b6142c9602083018561412b565b81810360408301526142db8184613fc4565b9050949350505050565b600060208201905081810360008301526142ff8184613abe565b905092915050565b600060208201905081810360008301526143218184613b1c565b905092915050565b600060208201905061433e6000830184613b91565b92915050565b6000602082019050818103600083015261435e8184613c12565b905092915050565b600060808201905081810360008301526143808187613c12565b905081810360208301526143948186613c12565b90506143a36040830185613aaf565b6143b0606083018461412b565b95945050505050565b600060208201905081810360008301526143d281613c7c565b9050919050565b600060208201905081810360008301526143f281613c9f565b9050919050565b6000602082019050818103600083015261441281613cc2565b9050919050565b6000602082019050818103600083015261443281613ce5565b9050919050565b6000602082019050818103600083015261445281613d08565b9050919050565b6000602082019050818103600083015261447281613d2b565b9050919050565b6000602082019050818103600083015261449281613d4e565b9050919050565b600060208201905081810360008301526144b281613d71565b9050919050565b600060208201905081810360008301526144d281613db7565b9050919050565b600060208201905081810360008301526144f281613dda565b9050919050565b6000602082019050818103600083015261451281613dfd565b9050919050565b6000602082019050818103600083015261453281613e20565b9050919050565b6000602082019050818103600083015261455281613e66565b9050919050565b6000602082019050818103600083015261457281613e89565b9050919050565b6000602082019050818103600083015261459281613f15565b9050919050565b600060208201905081810360008301526145b281613f7e565b9050919050565b600060208201905081810360008301526145d281613fa1565b9050919050565b600060208201905081810360008301526145f38184613fc4565b905092915050565b6000602082019050818103600083015261461581846140b2565b905092915050565b6000602082019050614632600083018461412b565b92915050565b600060408201905061464d600083018561412b565b61465a6020830184613aaf565b9392505050565b600060a082019050614676600083018861412b565b81810360208301526146888187613c12565b9050818103604083015261469c8186613c12565b905081810360608301526146b08185613c12565b90506146bf608083018461412b565b9695505050505050565b60006146d36146e4565b90506146df8282614a3d565b919050565b6000604051905090565b600067ffffffffffffffff82111561470957614708614b75565b5b61471282614ba4565b9050602081019050919050565b600067ffffffffffffffff82111561473a57614739614b75565b5b61474382614ba4565b9050602081019050919050565b6000819050602082019050919050565b6000819050602082019050919050565b600081519050919050565b600081519050919050565b600081519050919050565b600081519050919050565b6000602082019050919050565b6000602082019050919050565b600082825260208201905092915050565b600082825260208201905092915050565b600082825260208201905092915050565b600082825260208201905092915050565b600082825260208201905092915050565b600081905092915050565b600061482182614995565b915061482c83614995565b9250827fffffffffffffffffffffffffffffffffffffffffffffffffffffffffffffffff0382111561486157614860614ae8565b5b828201905092915050565b600061487782614995565b915061488283614995565b92508261489257614891614b17565b5b828204905092915050565b60006148a882614995565b91506148b383614995565b9250817fffffffffffffffffffffffffffffffffffffffffffffffffffffffffffffffff04831182151516156148ec576148eb614ae8565b5b828202905092915050565b600061490282614995565b915061490d83614995565b9250828210156149205761491f614ae8565b5b828203905092915050565b600061493682614975565b9050919050565b60008115159050919050565b60007fffffffff0000000000000000000000000000000000000000000000000000000082169050919050565b600073ffffffffffffffffffffffffffffffffffffffff82169050919050565b6000819050919050565b82818337600083830152505050565b60005b838110156149cc5780820151818401526020810190506149b1565b838111156149db576000848401525b50505050565b60006149ec82614995565b91506000821415614a00576149ff614ae8565b5b600182039050919050565b60006002820490506001821680614a2357607f821691505b60208210811415614a3757614a36614b46565b5b50919050565b614a4682614ba4565b810181811067ffffffffffffffff82111715614a6557614a64614b75565b5b80604052505050565b6000614a7982614995565b91507fffffffffffffffffffffffffffffffffffffffffffffffffffffffffffffffff821415614aac57614aab614ae8565b5b600182019050919050565b6000614ac282614995565b9150614acd83614995565b925082614add57614adc614b17565b5b828206905092915050565b7f4e487b7100000000000000000000000000000000000000000000000000000000600052601160045260246000fd5b7f4e487b7100000000000000000000000000000000000000000000000000000000600052601260045260246000fd5b7f4e487b7100000000000000000000000000000000000000000000000000000000600052602260045260246000fd5b7f4e487b7100000000000000000000000000000000000000000000000000000000600052604160045260246000fd5b6000601f19601f8301169050919050565b7f537472696e67733a20686578206c656e67746820696e73756666696369656e74600082015250565b7f426c6f6720646f65736e27742065786973740000000000000000000000000000600082015250565b7f4552433732313a207472616e7366657220746f206e6f6e20455243373231526560008201527f63656976657220696d706c656d656e7465720000000000000000000000000000602082015250565b7f4552433732313a207472616e736665722066726f6d20696e636f72726563742060008201527f6f776e6572000000000000000000000000000000000000000000000000000000602082015250565b7f4552433732313a20746f6b656e20616c7265616479206d696e74656400000000600082015250565b7f4552433732313a207472616e7366657220746f20746865207a65726f2061646460008201527f7265737300000000000000000000000000000000000000000000000000000000602082015250565b7f4552433732313a20617070726f766520746f2063616c6c657200000000000000600082015250565b7f4552433732313a2061646472657373207a65726f206973206e6f74206120766160008201527f6c6964206f776e65720000000000000000000000000000000000000000000000602082015250565b7f7b22426c6f67205469746c65223a202200000000000000000000000000000000600082015250565b7f4552433732313a20617070726f76652063616c6c6572206973206e6f7420746f60008201527f6b656e206f776e6572206e6f7220617070726f76656420666f7220616c6c0000602082015250565b7f4552433732313a206d696e7420746f20746865207a65726f2061646472657373600082015250565b7f596f75206861766520746f20626520666f6c6c6f77657220746f20636f6d6d6560008201527f6e74000000000000000000000000000000000000000000000000000000000000602082015250565b7f4552433732313a20696e76616c696420746f6b656e2049440000000000000000600082015250565b7f222c22426c6f67204e6f3a202200000000000000000000000000000000000000600082015250565b7f4552433732313a20617070726f76616c20746f2063757272656e74206f776e6560008201527f7200000000000000000000000000000000000000000000000000000000000000602082015250565b7f4e6f7420746865206f776e6572206f662074686520626c6f6700000000000000600082015250565b7f646174613a6170706c69636174696f6e2f6a736f6e3b6261736536342c000000600082015250565b7f222c2261747472696275746573223a205b207b202274726169745f747970652260008201527f3a2022466f6c6c6f77657273222c202276616c7565223a200000000000000000602082015250565b7f7d2c207d205d7d00000000000000000000000000000000000000000000000000600082015250565b7f426c6f67206e616d6520616c7265616479206578697374210000000000000000600082015250565b7f2d00000000000000000000000000000000000000000000000000000000000000600082015250565b7f222c20226465736372697074696f6e223a2022426c6f636b696679204e46542260008201527f2c2022696d616765223a20220000000000000000000000000000000000000000602082015250565b7f596f752061726520616c7265616479206120666f6c6c6f776572000000000000600082015250565b7f4552433732313a2063616c6c6572206973206e6f7420746f6b656e206f776e6560008201527f72206e6f7220617070726f766564000000000000000000000000000000000000602082015250565b6151128161492b565b811461511d57600080fd5b50565b6151298161493d565b811461513457600080fd5b50565b61514081614949565b811461514b57600080fd5b50565b61515781614995565b811461516257600080fd5b5056fe4142434445464748494a4b4c4d4e4f505152535455565758595a6162636465666768696a6b6c6d6e6f707172737475767778797a303132333435363738392b2fa26469706673582212208cd422c5cd28d2619ba644183e105db892388b1ad432b6b6c50f65cb26af048f64736f6c63430008010033",
  "linkReferences": {},
  "deployedLinkReferences": {}
}